{
  "contractName": "CarNFT",
  "abi": [
    {
      "inputs": [],
      "stateMutability": "nonpayable",
      "type": "constructor"
    },
    {
      "anonymous": false,
      "inputs": [
        {
          "indexed": true,
          "internalType": "address",
          "name": "owner",
          "type": "address"
        },
        {
          "indexed": true,
          "internalType": "address",
          "name": "approved",
          "type": "address"
        },
        {
          "indexed": true,
          "internalType": "uint256",
          "name": "tokenId",
          "type": "uint256"
        }
      ],
      "name": "Approval",
      "type": "event"
    },
    {
      "anonymous": false,
      "inputs": [
        {
          "indexed": true,
          "internalType": "address",
          "name": "owner",
          "type": "address"
        },
        {
          "indexed": true,
          "internalType": "address",
          "name": "operator",
          "type": "address"
        },
        {
          "indexed": false,
          "internalType": "bool",
          "name": "approved",
          "type": "bool"
        }
      ],
      "name": "ApprovalForAll",
      "type": "event"
    },
    {
      "anonymous": false,
      "inputs": [
        {
          "indexed": false,
          "internalType": "uint256",
          "name": "tokenId",
          "type": "uint256"
        }
      ],
      "name": "CarUpdated",
      "type": "event"
    },
    {
      "anonymous": false,
      "inputs": [
        {
          "indexed": true,
          "internalType": "address",
          "name": "previousOwner",
          "type": "address"
        },
        {
          "indexed": true,
          "internalType": "address",
          "name": "newOwner",
          "type": "address"
        }
      ],
      "name": "OwnershipTransferred",
      "type": "event"
    },
    {
      "anonymous": false,
      "inputs": [
        {
          "indexed": true,
          "internalType": "address",
          "name": "from",
          "type": "address"
        },
        {
          "indexed": true,
          "internalType": "address",
          "name": "to",
          "type": "address"
        },
        {
          "indexed": true,
          "internalType": "uint256",
          "name": "tokenId",
          "type": "uint256"
        }
      ],
      "name": "Transfer",
      "type": "event"
    },
    {
      "inputs": [
        {
          "internalType": "address",
          "name": "to",
          "type": "address"
        },
        {
          "internalType": "uint256",
          "name": "tokenId",
          "type": "uint256"
        }
      ],
      "name": "approve",
      "outputs": [],
      "stateMutability": "nonpayable",
      "type": "function"
    },
    {
      "inputs": [
        {
          "internalType": "address",
          "name": "owner",
          "type": "address"
        }
      ],
      "name": "balanceOf",
      "outputs": [
        {
          "internalType": "uint256",
          "name": "",
          "type": "uint256"
        }
      ],
      "stateMutability": "view",
      "type": "function"
    },
    {
      "inputs": [
        {
          "internalType": "uint256",
          "name": "tokenId",
          "type": "uint256"
        }
      ],
      "name": "getApproved",
      "outputs": [
        {
          "internalType": "address",
          "name": "",
          "type": "address"
        }
      ],
      "stateMutability": "view",
      "type": "function"
    },
    {
      "inputs": [
        {
          "internalType": "address",
          "name": "owner",
          "type": "address"
        },
        {
          "internalType": "address",
          "name": "operator",
          "type": "address"
        }
      ],
      "name": "isApprovedForAll",
      "outputs": [
        {
          "internalType": "bool",
          "name": "",
          "type": "bool"
        }
      ],
      "stateMutability": "view",
      "type": "function"
    },
    {
      "inputs": [],
      "name": "name",
      "outputs": [
        {
          "internalType": "string",
          "name": "",
          "type": "string"
        }
      ],
      "stateMutability": "view",
      "type": "function"
    },
    {
      "inputs": [],
      "name": "owner",
      "outputs": [
        {
          "internalType": "address",
          "name": "",
          "type": "address"
        }
      ],
      "stateMutability": "view",
      "type": "function"
    },
    {
      "inputs": [
        {
          "internalType": "uint256",
          "name": "tokenId",
          "type": "uint256"
        }
      ],
      "name": "ownerOf",
      "outputs": [
        {
          "internalType": "address",
          "name": "",
          "type": "address"
        }
      ],
      "stateMutability": "view",
      "type": "function"
    },
    {
      "inputs": [],
      "name": "renounceOwnership",
      "outputs": [],
      "stateMutability": "nonpayable",
      "type": "function"
    },
    {
      "inputs": [
        {
          "internalType": "address",
          "name": "from",
          "type": "address"
        },
        {
          "internalType": "address",
          "name": "to",
          "type": "address"
        },
        {
          "internalType": "uint256",
          "name": "tokenId",
          "type": "uint256"
        }
      ],
      "name": "safeTransferFrom",
      "outputs": [],
      "stateMutability": "nonpayable",
      "type": "function"
    },
    {
      "inputs": [
        {
          "internalType": "address",
          "name": "from",
          "type": "address"
        },
        {
          "internalType": "address",
          "name": "to",
          "type": "address"
        },
        {
          "internalType": "uint256",
          "name": "tokenId",
          "type": "uint256"
        },
        {
          "internalType": "bytes",
          "name": "_data",
          "type": "bytes"
        }
      ],
      "name": "safeTransferFrom",
      "outputs": [],
      "stateMutability": "nonpayable",
      "type": "function"
    },
    {
      "inputs": [
        {
          "internalType": "address",
          "name": "operator",
          "type": "address"
        },
        {
          "internalType": "bool",
          "name": "approved",
          "type": "bool"
        }
      ],
      "name": "setApprovalForAll",
      "outputs": [],
      "stateMutability": "nonpayable",
      "type": "function"
    },
    {
      "inputs": [
        {
          "internalType": "bytes4",
          "name": "interfaceId",
          "type": "bytes4"
        }
      ],
      "name": "supportsInterface",
      "outputs": [
        {
          "internalType": "bool",
          "name": "",
          "type": "bool"
        }
      ],
      "stateMutability": "view",
      "type": "function"
    },
    {
      "inputs": [],
      "name": "symbol",
      "outputs": [
        {
          "internalType": "string",
          "name": "",
          "type": "string"
        }
      ],
      "stateMutability": "view",
      "type": "function"
    },
    {
      "inputs": [
        {
          "internalType": "uint256",
          "name": "index",
          "type": "uint256"
        }
      ],
      "name": "tokenByIndex",
      "outputs": [
        {
          "internalType": "uint256",
          "name": "",
          "type": "uint256"
        }
      ],
      "stateMutability": "view",
      "type": "function"
    },
    {
      "inputs": [
        {
          "internalType": "address",
          "name": "owner",
          "type": "address"
        },
        {
          "internalType": "uint256",
          "name": "index",
          "type": "uint256"
        }
      ],
      "name": "tokenOfOwnerByIndex",
      "outputs": [
        {
          "internalType": "uint256",
          "name": "",
          "type": "uint256"
        }
      ],
      "stateMutability": "view",
      "type": "function"
    },
    {
      "inputs": [
        {
          "internalType": "uint256",
          "name": "tokenId",
          "type": "uint256"
        }
      ],
      "name": "tokenURI",
      "outputs": [
        {
          "internalType": "string",
          "name": "",
          "type": "string"
        }
      ],
      "stateMutability": "view",
      "type": "function"
    },
    {
      "inputs": [],
      "name": "totalSupply",
      "outputs": [
        {
          "internalType": "uint256",
          "name": "",
          "type": "uint256"
        }
      ],
      "stateMutability": "view",
      "type": "function"
    },
    {
      "inputs": [
        {
          "internalType": "address",
          "name": "from",
          "type": "address"
        },
        {
          "internalType": "address",
          "name": "to",
          "type": "address"
        },
        {
          "internalType": "uint256",
          "name": "tokenId",
          "type": "uint256"
        }
      ],
      "name": "transferFrom",
      "outputs": [],
      "stateMutability": "nonpayable",
      "type": "function"
    },
    {
      "inputs": [
        {
          "internalType": "address",
          "name": "newOwner",
          "type": "address"
        }
      ],
      "name": "transferOwnership",
      "outputs": [],
      "stateMutability": "nonpayable",
      "type": "function"
    },
    {
      "inputs": [
        {
          "internalType": "address",
          "name": "to",
          "type": "address"
        },
        {
          "internalType": "string",
          "name": "VIN",
          "type": "string"
        },
        {
          "internalType": "string",
          "name": "make",
          "type": "string"
        },
        {
          "internalType": "string",
          "name": "model",
          "type": "string"
        },
        {
          "internalType": "uint256",
          "name": "year",
          "type": "uint256"
        }
      ],
      "name": "mint",
      "outputs": [
        {
          "internalType": "uint256",
          "name": "tokenId",
          "type": "uint256"
        }
      ],
      "stateMutability": "nonpayable",
      "type": "function"
    },
    {
      "inputs": [
        {
          "internalType": "uint256",
          "name": "tokenId",
          "type": "uint256"
        }
      ],
      "name": "getCarDetails",
      "outputs": [
        {
          "components": [
            {
              "internalType": "string",
              "name": "VIN",
              "type": "string"
            },
            {
              "internalType": "string",
              "name": "make",
              "type": "string"
            },
            {
              "internalType": "string",
              "name": "model",
              "type": "string"
            },
            {
              "internalType": "uint256",
              "name": "year",
              "type": "uint256"
            },
            {
              "internalType": "bool",
              "name": "isForSale",
              "type": "bool"
            },
            {
              "internalType": "uint256",
              "name": "price",
              "type": "uint256"
            }
          ],
          "internalType": "struct CarNFT.CarDetails",
          "name": "",
          "type": "tuple"
        }
      ],
      "stateMutability": "view",
      "type": "function"
    },
    {
      "inputs": [
        {
          "internalType": "uint256",
          "name": "tokenId",
          "type": "uint256"
        },
        {
          "internalType": "bool",
          "name": "isForSale",
          "type": "bool"
        },
        {
          "internalType": "uint256",
          "name": "price",
          "type": "uint256"
        }
      ],
      "name": "setForSale",
      "outputs": [],
      "stateMutability": "nonpayable",
      "type": "function"
    },
    {
      "inputs": [
        {
          "internalType": "uint256",
          "name": "tokenId",
          "type": "uint256"
        },
        {
          "internalType": "string",
          "name": "VIN",
          "type": "string"
        },
        {
          "internalType": "string",
          "name": "make",
          "type": "string"
        },
        {
          "internalType": "string",
          "name": "model",
          "type": "string"
        },
        {
          "internalType": "uint256",
          "name": "year",
          "type": "uint256"
        }
      ],
      "name": "updateCarDetails",
      "outputs": [],
      "stateMutability": "nonpayable",
      "type": "function"
    },
    {
      "inputs": [
        {
          "internalType": "uint256",
          "name": "tokenId",
          "type": "uint256"
        }
      ],
      "name": "purchaseCar",
      "outputs": [],
      "stateMutability": "payable",
      "type": "function"
    }
  ],
  "bytecode": "0x608060405234801562000010575f80fd5b506040518060400160405280600681526020017f4361724e465400000000000000000000000000000000000000000000000000008152506040518060400160405280600381526020017f4341520000000000000000000000000000000000000000000000000000000000815250815f90816200008d9190620003f6565b5080600190816200009f9190620003f6565b505050620000c2620000b6620000c860201b60201c565b620000cf60201b60201c565b620004da565b5f33905090565b5f600a5f9054906101000a900473ffffffffffffffffffffffffffffffffffffffff16905081600a5f6101000a81548173ffffffffffffffffffffffffffffffffffffffff021916908373ffffffffffffffffffffffffffffffffffffffff1602179055508173ffffffffffffffffffffffffffffffffffffffff168173ffffffffffffffffffffffffffffffffffffffff167f8be0079c531659141344cd1fd0a4f28419497f9722a3daafe3b4186f6b6457e060405160405180910390a35050565b5f81519050919050565b7f4e487b71000000000000000000000000000000000000000000000000000000005f52604160045260245ffd5b7f4e487b71000000000000000000000000000000000000000000000000000000005f52602260045260245ffd5b5f60028204905060018216806200020e57607f821691505b602082108103620002245762000223620001c9565b5b50919050565b5f819050815f5260205f209050919050565b5f6020601f8301049050919050565b5f82821b905092915050565b5f60088302620002887fffffffffffffffffffffffffffffffffffffffffffffffffffffffffffffffff826200024b565b6200029486836200024b565b95508019841693508086168417925050509392505050565b5f819050919050565b5f819050919050565b5f620002de620002d8620002d284620002ac565b620002b5565b620002ac565b9050919050565b5f819050919050565b620002f983620002be565b620003116200030882620002e5565b84845462000257565b825550505050565b5f90565b6200032762000319565b62000334818484620002ee565b505050565b5b818110156200035b576200034f5f826200031d565b6001810190506200033a565b5050565b601f821115620003aa5762000374816200022a565b6200037f846200023c565b810160208510156200038f578190505b620003a76200039e856200023c565b83018262000339565b50505b505050565b5f82821c905092915050565b5f620003cc5f1984600802620003af565b1980831691505092915050565b5f620003e68383620003bb565b9150826002028217905092915050565b620004018262000192565b67ffffffffffffffff8111156200041d576200041c6200019c565b5b620004298254620001f6565b620004368282856200035f565b5f60209050601f8311600181146200046c575f841562000457578287015190505b620004638582620003d9565b865550620004d2565b601f1984166200047c866200022a565b5f5b82811015620004a5578489015182556001820191506020850194506020810190506200047e565b86831015620004c55784890151620004c1601f891682620003bb565b8355505b6001600288020188555050505b505050505050565b61411780620004e85f395ff3fe60806040526004361061014a575f3560e01c806370a08231116100b5578063b88d4fde1161006e578063b88d4fde146104b4578063c87b56dd146104dc578063cf5c1b5214610518578063e0ba3fe514610540578063e985e9c51461055c578063f2fde38b146105985761014a565b806370a08231146103aa578063715018a6146103e65780638da5cb5b146103fc57806395d89b41146104265780639ee74dd114610450578063a22cb4651461048c5761014a565b80632f745c59116101075780632f745c591461026a57806342842e0e146102a6578063472ec454146102ce5780634f6ccce71461030a5780636299a6f3146103465780636352211e1461036e5761014a565b806301ffc9a71461014e57806306fdde031461018a578063081812fc146101b4578063095ea7b3146101f057806318160ddd1461021857806323b872dd14610242575b5f80fd5b348015610159575f80fd5b50610174600480360381019061016f91906127ca565b6105c0565b604051610181919061280f565b60405180910390f35b348015610195575f80fd5b5061019e610639565b6040516101ab91906128b2565b60405180910390f35b3480156101bf575f80fd5b506101da60048036038101906101d59190612905565b6106c8565b6040516101e7919061296f565b60405180910390f35b3480156101fb575f80fd5b50610216600480360381019061021191906129b2565b610749565b005b348015610223575f80fd5b5061022c61085f565b60405161023991906129ff565b60405180910390f35b34801561024d575f80fd5b5061026860048036038101906102639190612a18565b61086b565b005b348015610275575f80fd5b50610290600480360381019061028b91906129b2565b6108cb565b60405161029d91906129ff565b60405180910390f35b3480156102b1575f80fd5b506102cc60048036038101906102c79190612a18565b61096b565b005b3480156102d9575f80fd5b506102f460048036038101906102ef9190612905565b61098a565b6040516103019190612b62565b60405180910390f35b348015610315575f80fd5b50610330600480360381019061032b9190612905565b610b92565b60405161033d91906129ff565b60405180910390f35b348015610351575f80fd5b5061036c60048036038101906103679190612cae565b610c00565b005b348015610379575f80fd5b50610394600480360381019061038f9190612905565b610d9e565b6040516103a1919061296f565b60405180910390f35b3480156103b5575f80fd5b506103d060048036038101906103cb9190612d79565b610e4a565b6040516103dd91906129ff565b60405180910390f35b3480156103f1575f80fd5b506103fa610efe565b005b348015610407575f80fd5b50610410610f85565b60405161041d919061296f565b60405180910390f35b348015610431575f80fd5b5061043a610fad565b60405161044791906128b2565b60405180910390f35b34801561045b575f80fd5b5061047660048036038101906104719190612da4565b61103d565b60405161048391906129ff565b60405180910390f35b348015610497575f80fd5b506104b260048036038101906104ad9190612e99565b61118d565b005b3480156104bf575f80fd5b506104da60048036038101906104d59190612f75565b611308565b005b3480156104e7575f80fd5b5061050260048036038101906104fd9190612905565b61136a565b60405161050f91906128b2565b60405180910390f35b348015610523575f80fd5b5061053e60048036038101906105399190612ff5565b61140e565b005b61055a60048036038101906105559190612905565b611504565b005b348015610567575f80fd5b50610582600480360381019061057d9190613045565b611644565b60405161058f919061280f565b60405180910390f35b3480156105a3575f80fd5b506105be60048036038101906105b99190612d79565b6116d2565b005b5f7f780e9d63000000000000000000000000000000000000000000000000000000007bffffffffffffffffffffffffffffffffffffffffffffffffffffffff1916827bffffffffffffffffffffffffffffffffffffffffffffffffffffffff191614806106325750610631826117c8565b5b9050919050565b60605f8054610647906130b0565b80601f0160208091040260200160405190810160405280929190818152602001828054610673906130b0565b80156106be5780601f10610695576101008083540402835291602001916106be565b820191905f5260205f20905b8154815290600101906020018083116106a157829003601f168201915b5050505050905090565b5f6106d2826118a9565b610711576040517f08c379a000000000000000000000000000000000000000000000000000000000815260040161070890613150565b60405180910390fd5b60045f8381526020019081526020015f205f9054906101000a900473ffffffffffffffffffffffffffffffffffffffff169050919050565b5f61075382610d9e565b90508073ffffffffffffffffffffffffffffffffffffffff168373ffffffffffffffffffffffffffffffffffffffff16036107c3576040517f08c379a00000000000000000000000000000000000000000000000000000000081526004016107ba906131de565b60405180910390fd5b8073ffffffffffffffffffffffffffffffffffffffff166107e2611911565b73ffffffffffffffffffffffffffffffffffffffff16148061081157506108108161080b611911565b611644565b5b610850576040517f08c379a00000000000000000000000000000000000000000000000000000000081526004016108479061326c565b60405180910390fd5b61085a8383611918565b505050565b5f600880549050905090565b61087c610876611911565b826119ce565b6108bb576040517f08c379a00000000000000000000000000000000000000000000000000000000081526004016108b2906132fa565b60405180910390fd5b6108c6838383611aaa565b505050565b5f6108d583610e4a565b8210610916576040517f08c379a000000000000000000000000000000000000000000000000000000000815260040161090d90613388565b60405180910390fd5b60065f8473ffffffffffffffffffffffffffffffffffffffff1673ffffffffffffffffffffffffffffffffffffffff1681526020019081526020015f205f8381526020019081526020015f2054905092915050565b61098583838360405180602001604052805f815250611308565b505050565b61099261272f565b600b5f8381526020019081526020015f206040518060c00160405290815f820180546109bd906130b0565b80601f01602080910402602001604051908101604052809291908181526020018280546109e9906130b0565b8015610a345780601f10610a0b57610100808354040283529160200191610a34565b820191905f5260205f20905b815481529060010190602001808311610a1757829003601f168201915b50505050508152602001600182018054610a4d906130b0565b80601f0160208091040260200160405190810160405280929190818152602001828054610a79906130b0565b8015610ac45780601f10610a9b57610100808354040283529160200191610ac4565b820191905f5260205f20905b815481529060010190602001808311610aa757829003601f168201915b50505050508152602001600282018054610add906130b0565b80601f0160208091040260200160405190810160405280929190818152602001828054610b09906130b0565b8015610b545780601f10610b2b57610100808354040283529160200191610b54565b820191905f5260205f20905b815481529060010190602001808311610b3757829003601f168201915b5050505050815260200160038201548152602001600482015f9054906101000a900460ff161515151581526020016005820154815250509050919050565b5f610b9b61085f565b8210610bdc576040517f08c379a0000000000000000000000000000000000000000000000000000000008152600401610bd390613416565b60405180910390fd5b60088281548110610bf057610bef613434565b5b905f5260205f2001549050919050565b3373ffffffffffffffffffffffffffffffffffffffff16610c2086610d9e565b73ffffffffffffffffffffffffffffffffffffffff1614610c76576040517f08c379a0000000000000000000000000000000000000000000000000000000008152600401610c6d906134ab565b60405180910390fd5b6040518060c00160405280858152602001848152602001838152602001828152602001600b5f8881526020019081526020015f206004015f9054906101000a900460ff1615158152602001600b5f8881526020019081526020015f2060050154815250600b5f8781526020019081526020015f205f820151815f019081610cfd9190613666565b506020820151816001019081610d139190613666565b506040820151816002019081610d299190613666565b50606082015181600301556080820151816004015f6101000a81548160ff02191690831515021790555060a082015181600501559050507f935eeddcdb911de1c078d5ba3c0138d64d317e34145e127419eaa373421d051a85604051610d8f91906129ff565b60405180910390a15050505050565b5f8060025f8481526020019081526020015f205f9054906101000a900473ffffffffffffffffffffffffffffffffffffffff1690505f73ffffffffffffffffffffffffffffffffffffffff168173ffffffffffffffffffffffffffffffffffffffff1603610e41576040517f08c379a0000000000000000000000000000000000000000000000000000000008152600401610e38906137a5565b60405180910390fd5b80915050919050565b5f8073ffffffffffffffffffffffffffffffffffffffff168273ffffffffffffffffffffffffffffffffffffffff1603610eb9576040517f08c379a0000000000000000000000000000000000000000000000000000000008152600401610eb090613833565b60405180910390fd5b60035f8373ffffffffffffffffffffffffffffffffffffffff1673ffffffffffffffffffffffffffffffffffffffff1681526020019081526020015f20549050919050565b610f06611911565b73ffffffffffffffffffffffffffffffffffffffff16610f24610f85565b73ffffffffffffffffffffffffffffffffffffffff1614610f7a576040517f08c379a0000000000000000000000000000000000000000000000000000000008152600401610f719061389b565b60405180910390fd5b610f835f611cfa565b565b5f600a5f9054906101000a900473ffffffffffffffffffffffffffffffffffffffff16905090565b606060018054610fbc906130b0565b80601f0160208091040260200160405190810160405280929190818152602001828054610fe8906130b0565b80156110335780601f1061100a57610100808354040283529160200191611033565b820191905f5260205f20905b81548152906001019060200180831161101657829003601f168201915b5050505050905090565b5f611046611911565b73ffffffffffffffffffffffffffffffffffffffff16611064610f85565b73ffffffffffffffffffffffffffffffffffffffff16146110ba576040517f08c379a00000000000000000000000000000000000000000000000000000000081526004016110b19061389b565b60405180910390fd5b6110c261085f565b90506110ce8682611dbd565b6040518060c001604052808681526020018581526020018481526020018381526020015f151581526020015f815250600b5f8381526020019081526020015f205f820151815f0190816111219190613666565b5060208201518160010190816111379190613666565b50604082015181600201908161114d9190613666565b50606082015181600301556080820151816004015f6101000a81548160ff02191690831515021790555060a0820151816005015590505095945050505050565b611195611911565b73ffffffffffffffffffffffffffffffffffffffff168273ffffffffffffffffffffffffffffffffffffffff1603611202576040517f08c379a00000000000000000000000000000000000000000000000000000000081526004016111f990613903565b60405180910390fd5b8060055f61120e611911565b73ffffffffffffffffffffffffffffffffffffffff1673ffffffffffffffffffffffffffffffffffffffff1681526020019081526020015f205f8473ffffffffffffffffffffffffffffffffffffffff1673ffffffffffffffffffffffffffffffffffffffff1681526020019081526020015f205f6101000a81548160ff0219169083151502179055508173ffffffffffffffffffffffffffffffffffffffff166112b7611911565b73ffffffffffffffffffffffffffffffffffffffff167f17307eab39ab6107e8899845ad3d59bd9653f200f220920489ca2b5937696c31836040516112fc919061280f565b60405180910390a35050565b611319611313611911565b836119ce565b611358576040517f08c379a000000000000000000000000000000000000000000000000000000000815260040161134f906132fa565b60405180910390fd5b61136484848484611f81565b50505050565b6060611375826118a9565b6113b4576040517f08c379a00000000000000000000000000000000000000000000000000000000081526004016113ab90613991565b60405180910390fd5b5f6113bd611fdd565b90505f8151116113db5760405180602001604052805f815250611406565b806113e584611ff3565b6040516020016113f69291906139e9565b6040516020818303038152906040525b915050919050565b3373ffffffffffffffffffffffffffffffffffffffff1661142e84610d9e565b73ffffffffffffffffffffffffffffffffffffffff1614611484576040517f08c379a000000000000000000000000000000000000000000000000000000000815260040161147b906134ab565b60405180910390fd5b81600b5f8581526020019081526020015f206004015f6101000a81548160ff02191690831515021790555080600b5f8581526020019081526020015f20600501819055507f935eeddcdb911de1c078d5ba3c0138d64d317e34145e127419eaa373421d051a836040516114f791906129ff565b60405180910390a1505050565b600b5f8281526020019081526020015f206004015f9054906101000a900460ff16611564576040517f08c379a000000000000000000000000000000000000000000000000000000000815260040161155b90613a56565b60405180910390fd5b600b5f8281526020019081526020015f206005015434146115ba576040517f08c379a00000000000000000000000000000000000000000000000000000000081526004016115b190613abe565b60405180910390fd5b5f6115c482610d9e565b90508073ffffffffffffffffffffffffffffffffffffffff166108fc3490811502906040515f60405180830381858888f19350505050158015611609573d5f803e3d5ffd5b50611615813384611aaa565b5f600b5f8481526020019081526020015f206004015f6101000a81548160ff0219169083151502179055505050565b5f60055f8473ffffffffffffffffffffffffffffffffffffffff1673ffffffffffffffffffffffffffffffffffffffff1681526020019081526020015f205f8373ffffffffffffffffffffffffffffffffffffffff1673ffffffffffffffffffffffffffffffffffffffff1681526020019081526020015f205f9054906101000a900460ff16905092915050565b6116da611911565b73ffffffffffffffffffffffffffffffffffffffff166116f8610f85565b73ffffffffffffffffffffffffffffffffffffffff161461174e576040517f08c379a00000000000000000000000000000000000000000000000000000000081526004016117459061389b565b60405180910390fd5b5f73ffffffffffffffffffffffffffffffffffffffff168173ffffffffffffffffffffffffffffffffffffffff16036117bc576040517f08c379a00000000000000000000000000000000000000000000000000000000081526004016117b390613b4c565b60405180910390fd5b6117c581611cfa565b50565b5f7f80ac58cd000000000000000000000000000000000000000000000000000000007bffffffffffffffffffffffffffffffffffffffffffffffffffffffff1916827bffffffffffffffffffffffffffffffffffffffffffffffffffffffff1916148061189257507f5b5e139f000000000000000000000000000000000000000000000000000000007bffffffffffffffffffffffffffffffffffffffffffffffffffffffff1916827bffffffffffffffffffffffffffffffffffffffffffffffffffffffff1916145b806118a257506118a18261214c565b5b9050919050565b5f8073ffffffffffffffffffffffffffffffffffffffff1660025f8481526020019081526020015f205f9054906101000a900473ffffffffffffffffffffffffffffffffffffffff1673ffffffffffffffffffffffffffffffffffffffff1614159050919050565b5f33905090565b8160045f8381526020019081526020015f205f6101000a81548173ffffffffffffffffffffffffffffffffffffffff021916908373ffffffffffffffffffffffffffffffffffffffff160217905550808273ffffffffffffffffffffffffffffffffffffffff1661198883610d9e565b73ffffffffffffffffffffffffffffffffffffffff167f8c5be1e5ebec7d5bd14f71427d1e84f3dd0314c0f7b2291e5b200ac8c7c3b92560405160405180910390a45050565b5f6119d8826118a9565b611a17576040517f08c379a0000000000000000000000000000000000000000000000000000000008152600401611a0e90613bda565b60405180910390fd5b5f611a2183610d9e565b90508073ffffffffffffffffffffffffffffffffffffffff168473ffffffffffffffffffffffffffffffffffffffff161480611a9057508373ffffffffffffffffffffffffffffffffffffffff16611a78846106c8565b73ffffffffffffffffffffffffffffffffffffffff16145b80611aa15750611aa08185611644565b5b91505092915050565b8273ffffffffffffffffffffffffffffffffffffffff16611aca82610d9e565b73ffffffffffffffffffffffffffffffffffffffff1614611b20576040517f08c379a0000000000000000000000000000000000000000000000000000000008152600401611b1790613c68565b60405180910390fd5b5f73ffffffffffffffffffffffffffffffffffffffff168273ffffffffffffffffffffffffffffffffffffffff1603611b8e576040517f08c379a0000000000000000000000000000000000000000000000000000000008152600401611b8590613cf6565b60405180910390fd5b611b998383836121b5565b611ba35f82611918565b600160035f8573ffffffffffffffffffffffffffffffffffffffff1673ffffffffffffffffffffffffffffffffffffffff1681526020019081526020015f205f828254611bf09190613d41565b92505081905550600160035f8473ffffffffffffffffffffffffffffffffffffffff1673ffffffffffffffffffffffffffffffffffffffff1681526020019081526020015f205f828254611c449190613d74565b925050819055508160025f8381526020019081526020015f205f6101000a81548173ffffffffffffffffffffffffffffffffffffffff021916908373ffffffffffffffffffffffffffffffffffffffff160217905550808273ffffffffffffffffffffffffffffffffffffffff168473ffffffffffffffffffffffffffffffffffffffff167fddf252ad1be2c89b69c2b068fc378daa952ba7f163c4a11628f55a4df523b3ef60405160405180910390a4505050565b5f600a5f9054906101000a900473ffffffffffffffffffffffffffffffffffffffff16905081600a5f6101000a81548173ffffffffffffffffffffffffffffffffffffffff021916908373ffffffffffffffffffffffffffffffffffffffff1602179055508173ffffffffffffffffffffffffffffffffffffffff168173ffffffffffffffffffffffffffffffffffffffff167f8be0079c531659141344cd1fd0a4f28419497f9722a3daafe3b4186f6b6457e060405160405180910390a35050565b5f73ffffffffffffffffffffffffffffffffffffffff168273ffffffffffffffffffffffffffffffffffffffff1603611e2b576040517f08c379a0000000000000000000000000000000000000000000000000000000008152600401611e2290613df1565b60405180910390fd5b611e34816118a9565b15611e74576040517f08c379a0000000000000000000000000000000000000000000000000000000008152600401611e6b90613e59565b60405180910390fd5b611e7f5f83836121b5565b600160035f8473ffffffffffffffffffffffffffffffffffffffff1673ffffffffffffffffffffffffffffffffffffffff1681526020019081526020015f205f828254611ecc9190613d74565b925050819055508160025f8381526020019081526020015f205f6101000a81548173ffffffffffffffffffffffffffffffffffffffff021916908373ffffffffffffffffffffffffffffffffffffffff160217905550808273ffffffffffffffffffffffffffffffffffffffff165f73ffffffffffffffffffffffffffffffffffffffff167fddf252ad1be2c89b69c2b068fc378daa952ba7f163c4a11628f55a4df523b3ef60405160405180910390a45050565b611f8c848484611aaa565b611f98848484846122c5565b611fd7576040517f08c379a0000000000000000000000000000000000000000000000000000000008152600401611fce90613ee7565b60405180910390fd5b50505050565b606060405180602001604052805f815250905090565b60605f8203612039576040518060400160405280600181526020017f30000000000000000000000000000000000000000000000000000000000000008152509050612147565b5f8290505f5b5f821461206857808061205190613f05565b915050600a826120619190613f79565b915061203f565b5f8167ffffffffffffffff81111561208357612082612b8a565b5b6040519080825280601f01601f1916602001820160405280156120b55781602001600182028036833780820191505090505b5090505b5f8514612140576001826120cd9190613d41565b9150600a856120dc9190613fa9565b60306120e89190613d74565b60f81b8183815181106120fe576120fd613434565b5b60200101907effffffffffffffffffffffffffffffffffffffffffffffffffffffffffffff191690815f1a905350600a856121399190613f79565b94506120b9565b8093505050505b919050565b5f7f01ffc9a7000000000000000000000000000000000000000000000000000000007bffffffffffffffffffffffffffffffffffffffffffffffffffffffff1916827bffffffffffffffffffffffffffffffffffffffffffffffffffffffff1916149050919050565b6121c0838383612447565b5f73ffffffffffffffffffffffffffffffffffffffff168373ffffffffffffffffffffffffffffffffffffffff1603612201576121fc8161244c565b612240565b8173ffffffffffffffffffffffffffffffffffffffff168373ffffffffffffffffffffffffffffffffffffffff161461223f5761223e8382612490565b5b5b5f73ffffffffffffffffffffffffffffffffffffffff168273ffffffffffffffffffffffffffffffffffffffff16036122815761227c816125e6565b6122c0565b8273ffffffffffffffffffffffffffffffffffffffff168273ffffffffffffffffffffffffffffffffffffffff16146122bf576122be82826126a6565b5b5b505050565b5f6122e58473ffffffffffffffffffffffffffffffffffffffff1661271e565b1561243a578373ffffffffffffffffffffffffffffffffffffffff1663150b7a0261230e611911565b8786866040518563ffffffff1660e01b8152600401612330949392919061402b565b6020604051808303815f875af192505050801561236b57506040513d601f19601f820116820180604052508101906123689190614089565b60015b6123ea573d805f8114612399576040519150601f19603f3d011682016040523d82523d5f602084013e61239e565b606091505b505f8151036123e2576040517f08c379a00000000000000000000000000000000000000000000000000000000081526004016123d990613ee7565b60405180910390fd5b805181602001fd5b63150b7a0260e01b7bffffffffffffffffffffffffffffffffffffffffffffffffffffffff1916817bffffffffffffffffffffffffffffffffffffffffffffffffffffffff19161491505061243f565b600190505b949350505050565b505050565b60088054905060095f8381526020019081526020015f2081905550600881908060018154018082558091505060019003905f5260205f20015f909190919091505550565b5f600161249c84610e4a565b6124a69190613d41565b90505f60075f8481526020019081526020015f2054905081811461257d575f60065f8673ffffffffffffffffffffffffffffffffffffffff1673ffffffffffffffffffffffffffffffffffffffff1681526020019081526020015f205f8481526020019081526020015f205490508060065f8773ffffffffffffffffffffffffffffffffffffffff1673ffffffffffffffffffffffffffffffffffffffff1681526020019081526020015f205f8481526020019081526020015f20819055508160075f8381526020019081526020015f2081905550505b60075f8481526020019081526020015f205f905560065f8573ffffffffffffffffffffffffffffffffffffffff1673ffffffffffffffffffffffffffffffffffffffff1681526020019081526020015f205f8381526020019081526020015f205f905550505050565b5f60016008805490506125f99190613d41565b90505f60095f8481526020019081526020015f205490505f6008838154811061262557612624613434565b5b905f5260205f2001549050806008838154811061264557612644613434565b5b905f5260205f2001819055508160095f8381526020019081526020015f208190555060095f8581526020019081526020015f205f9055600880548061268d5761268c6140b4565b5b600190038181905f5260205f20015f9055905550505050565b5f6126b083610e4a565b90508160065f8573ffffffffffffffffffffffffffffffffffffffff1673ffffffffffffffffffffffffffffffffffffffff1681526020019081526020015f205f8381526020019081526020015f20819055508060075f8481526020019081526020015f2081905550505050565b5f80823b90505f8111915050919050565b6040518060c001604052806060815260200160608152602001606081526020015f81526020015f151581526020015f81525090565b5f604051905090565b5f80fd5b5f80fd5b5f7fffffffff0000000000000000000000000000000000000000000000000000000082169050919050565b6127a981612775565b81146127b3575f80fd5b50565b5f813590506127c4816127a0565b92915050565b5f602082840312156127df576127de61276d565b5b5f6127ec848285016127b6565b91505092915050565b5f8115159050919050565b612809816127f5565b82525050565b5f6020820190506128225f830184612800565b92915050565b5f81519050919050565b5f82825260208201905092915050565b5f5b8381101561285f578082015181840152602081019050612844565b5f8484015250505050565b5f601f19601f8301169050919050565b5f61288482612828565b61288e8185612832565b935061289e818560208601612842565b6128a78161286a565b840191505092915050565b5f6020820190508181035f8301526128ca818461287a565b905092915050565b5f819050919050565b6128e4816128d2565b81146128ee575f80fd5b50565b5f813590506128ff816128db565b92915050565b5f6020828403121561291a5761291961276d565b5b5f612927848285016128f1565b91505092915050565b5f73ffffffffffffffffffffffffffffffffffffffff82169050919050565b5f61295982612930565b9050919050565b6129698161294f565b82525050565b5f6020820190506129825f830184612960565b92915050565b6129918161294f565b811461299b575f80fd5b50565b5f813590506129ac81612988565b92915050565b5f80604083850312156129c8576129c761276d565b5b5f6129d58582860161299e565b92505060206129e6858286016128f1565b9150509250929050565b6129f9816128d2565b82525050565b5f602082019050612a125f8301846129f0565b92915050565b5f805f60608486031215612a2f57612a2e61276d565b5b5f612a3c8682870161299e565b9350506020612a4d8682870161299e565b9250506040612a5e868287016128f1565b9150509250925092565b5f82825260208201905092915050565b5f612a8282612828565b612a8c8185612a68565b9350612a9c818560208601612842565b612aa58161286a565b840191505092915050565b612ab9816128d2565b82525050565b612ac8816127f5565b82525050565b5f60c083015f8301518482035f860152612ae88282612a78565b91505060208301518482036020860152612b028282612a78565b91505060408301518482036040860152612b1c8282612a78565b9150506060830151612b316060860182612ab0565b506080830151612b446080860182612abf565b5060a0830151612b5760a0860182612ab0565b508091505092915050565b5f6020820190508181035f830152612b7a8184612ace565b905092915050565b5f80fd5b5f80fd5b7f4e487b71000000000000000000000000000000000000000000000000000000005f52604160045260245ffd5b612bc08261286a565b810181811067ffffffffffffffff82111715612bdf57612bde612b8a565b5b80604052505050565b5f612bf1612764565b9050612bfd8282612bb7565b919050565b5f67ffffffffffffffff821115612c1c57612c1b612b8a565b5b612c258261286a565b9050602081019050919050565b828183375f83830152505050565b5f612c52612c4d84612c02565b612be8565b905082815260208101848484011115612c6e57612c6d612b86565b5b612c79848285612c32565b509392505050565b5f82601f830112612c9557612c94612b82565b5b8135612ca5848260208601612c40565b91505092915050565b5f805f805f60a08688031215612cc757612cc661276d565b5b5f612cd4888289016128f1565b955050602086013567ffffffffffffffff811115612cf557612cf4612771565b5b612d0188828901612c81565b945050604086013567ffffffffffffffff811115612d2257612d21612771565b5b612d2e88828901612c81565b935050606086013567ffffffffffffffff811115612d4f57612d4e612771565b5b612d5b88828901612c81565b9250506080612d6c888289016128f1565b9150509295509295909350565b5f60208284031215612d8e57612d8d61276d565b5b5f612d9b8482850161299e565b91505092915050565b5f805f805f60a08688031215612dbd57612dbc61276d565b5b5f612dca8882890161299e565b955050602086013567ffffffffffffffff811115612deb57612dea612771565b5b612df788828901612c81565b945050604086013567ffffffffffffffff811115612e1857612e17612771565b5b612e2488828901612c81565b935050606086013567ffffffffffffffff811115612e4557612e44612771565b5b612e5188828901612c81565b9250506080612e62888289016128f1565b9150509295509295909350565b612e78816127f5565b8114612e82575f80fd5b50565b5f81359050612e9381612e6f565b92915050565b5f8060408385031215612eaf57612eae61276d565b5b5f612ebc8582860161299e565b9250506020612ecd85828601612e85565b9150509250929050565b5f67ffffffffffffffff821115612ef157612ef0612b8a565b5b612efa8261286a565b9050602081019050919050565b5f612f19612f1484612ed7565b612be8565b905082815260208101848484011115612f3557612f34612b86565b5b612f40848285612c32565b509392505050565b5f82601f830112612f5c57612f5b612b82565b5b8135612f6c848260208601612f07565b91505092915050565b5f805f8060808587031215612f8d57612f8c61276d565b5b5f612f9a8782880161299e565b9450506020612fab8782880161299e565b9350506040612fbc878288016128f1565b925050606085013567ffffffffffffffff811115612fdd57612fdc612771565b5b612fe987828801612f48565b91505092959194509250565b5f805f6060848603121561300c5761300b61276d565b5b5f613019868287016128f1565b935050602061302a86828701612e85565b925050604061303b868287016128f1565b9150509250925092565b5f806040838503121561305b5761305a61276d565b5b5f6130688582860161299e565b92505060206130798582860161299e565b9150509250929050565b7f4e487b71000000000000000000000000000000000000000000000000000000005f52602260045260245ffd5b5f60028204905060018216806130c757607f821691505b6020821081036130da576130d9613083565b5b50919050565b7f4552433732313a20617070726f76656420717565727920666f72206e6f6e65785f8201527f697374656e7420746f6b656e0000000000000000000000000000000000000000602082015250565b5f61313a602c83612832565b9150613145826130e0565b604082019050919050565b5f6020820190508181035f8301526131678161312e565b9050919050565b7f4552433732313a20617070726f76616c20746f2063757272656e74206f776e655f8201527f7200000000000000000000000000000000000000000000000000000000000000602082015250565b5f6131c8602183612832565b91506131d38261316e565b604082019050919050565b5f6020820190508181035f8301526131f5816131bc565b9050919050565b7f4552433732313a20617070726f76652063616c6c6572206973206e6f74206f775f8201527f6e6572206e6f7220617070726f76656420666f7220616c6c0000000000000000602082015250565b5f613256603883612832565b9150613261826131fc565b604082019050919050565b5f6020820190508181035f8301526132838161324a565b9050919050565b7f4552433732313a207472616e736665722063616c6c6572206973206e6f74206f5f8201527f776e6572206e6f7220617070726f766564000000000000000000000000000000602082015250565b5f6132e4603183612832565b91506132ef8261328a565b604082019050919050565b5f6020820190508181035f830152613311816132d8565b9050919050565b7f455243373231456e756d657261626c653a206f776e657220696e646578206f755f8201527f74206f6620626f756e6473000000000000000000000000000000000000000000602082015250565b5f613372602b83612832565b915061337d82613318565b604082019050919050565b5f6020820190508181035f83015261339f81613366565b9050919050565b7f455243373231456e756d657261626c653a20676c6f62616c20696e646578206f5f8201527f7574206f6620626f756e64730000000000000000000000000000000000000000602082015250565b5f613400602c83612832565b915061340b826133a6565b604082019050919050565b5f6020820190508181035f83015261342d816133f4565b9050919050565b7f4e487b71000000000000000000000000000000000000000000000000000000005f52603260045260245ffd5b7f4e6f7420746865206f776e6572000000000000000000000000000000000000005f82015250565b5f613495600d83612832565b91506134a082613461565b602082019050919050565b5f6020820190508181035f8301526134c281613489565b9050919050565b5f819050815f5260205f209050919050565b5f6020601f8301049050919050565b5f82821b905092915050565b5f600883026135257fffffffffffffffffffffffffffffffffffffffffffffffffffffffffffffffff826134ea565b61352f86836134ea565b95508019841693508086168417925050509392505050565b5f819050919050565b5f61356a613565613560846128d2565b613547565b6128d2565b9050919050565b5f819050919050565b61358383613550565b61359761358f82613571565b8484546134f6565b825550505050565b5f90565b6135ab61359f565b6135b681848461357a565b505050565b5b818110156135d9576135ce5f826135a3565b6001810190506135bc565b5050565b601f82111561361e576135ef816134c9565b6135f8846134db565b81016020851015613607578190505b61361b613613856134db565b8301826135bb565b50505b505050565b5f82821c905092915050565b5f61363e5f1984600802613623565b1980831691505092915050565b5f613656838361362f565b9150826002028217905092915050565b61366f82612828565b67ffffffffffffffff81111561368857613687612b8a565b5b61369282546130b0565b61369d8282856135dd565b5f60209050601f8311600181146136ce575f84156136bc578287015190505b6136c6858261364b565b86555061372d565b601f1984166136dc866134c9565b5f5b82811015613703578489015182556001820191506020850194506020810190506136de565b86831015613720578489015161371c601f89168261362f565b8355505b6001600288020188555050505b505050505050565b7f4552433732313a206f776e657220717565727920666f72206e6f6e65786973745f8201527f656e7420746f6b656e0000000000000000000000000000000000000000000000602082015250565b5f61378f602983612832565b915061379a82613735565b604082019050919050565b5f6020820190508181035f8301526137bc81613783565b9050919050565b7f4552433732313a2062616c616e636520717565727920666f7220746865207a655f8201527f726f206164647265737300000000000000000000000000000000000000000000602082015250565b5f61381d602a83612832565b9150613828826137c3565b604082019050919050565b5f6020820190508181035f83015261384a81613811565b9050919050565b7f4f776e61626c653a2063616c6c6572206973206e6f7420746865206f776e65725f82015250565b5f613885602083612832565b915061389082613851565b602082019050919050565b5f6020820190508181035f8301526138b281613879565b9050919050565b7f4552433732313a20617070726f766520746f2063616c6c6572000000000000005f82015250565b5f6138ed601983612832565b91506138f8826138b9565b602082019050919050565b5f6020820190508181035f83015261391a816138e1565b9050919050565b7f4552433732314d657461646174613a2055524920717565727920666f72206e6f5f8201527f6e6578697374656e7420746f6b656e0000000000000000000000000000000000602082015250565b5f61397b602f83612832565b915061398682613921565b604082019050919050565b5f6020820190508181035f8301526139a88161396f565b9050919050565b5f81905092915050565b5f6139c382612828565b6139cd81856139af565b93506139dd818560208601612842565b80840191505092915050565b5f6139f482856139b9565b9150613a0082846139b9565b91508190509392505050565b7f436172206e6f7420666f722073616c65000000000000000000000000000000005f82015250565b5f613a40601083612832565b9150613a4b82613a0c565b602082019050919050565b5f6020820190508181035f830152613a6d81613a34565b9050919050565b7f5072696365206d69736d617463680000000000000000000000000000000000005f82015250565b5f613aa8600e83612832565b9150613ab382613a74565b602082019050919050565b5f6020820190508181035f830152613ad581613a9c565b9050919050565b7f4f776e61626c653a206e6577206f776e657220697320746865207a65726f20615f8201527f6464726573730000000000000000000000000000000000000000000000000000602082015250565b5f613b36602683612832565b9150613b4182613adc565b604082019050919050565b5f6020820190508181035f830152613b6381613b2a565b9050919050565b7f4552433732313a206f70657261746f7220717565727920666f72206e6f6e65785f8201527f697374656e7420746f6b656e0000000000000000000000000000000000000000602082015250565b5f613bc4602c83612832565b9150613bcf82613b6a565b604082019050919050565b5f6020820190508181035f830152613bf181613bb8565b9050919050565b7f4552433732313a207472616e73666572206f6620746f6b656e207468617420695f8201527f73206e6f74206f776e0000000000000000000000000000000000000000000000602082015250565b5f613c52602983612832565b9150613c5d82613bf8565b604082019050919050565b5f6020820190508181035f830152613c7f81613c46565b9050919050565b7f4552433732313a207472616e7366657220746f20746865207a65726f206164645f8201527f7265737300000000000000000000000000000000000000000000000000000000602082015250565b5f613ce0602483612832565b9150613ceb82613c86565b604082019050919050565b5f6020820190508181035f830152613d0d81613cd4565b9050919050565b7f4e487b71000000000000000000000000000000000000000000000000000000005f52601160045260245ffd5b5f613d4b826128d2565b9150613d56836128d2565b9250828203905081811115613d6e57613d6d613d14565b5b92915050565b5f613d7e826128d2565b9150613d89836128d2565b9250828201905080821115613da157613da0613d14565b5b92915050565b7f4552433732313a206d696e7420746f20746865207a65726f20616464726573735f82015250565b5f613ddb602083612832565b9150613de682613da7565b602082019050919050565b5f6020820190508181035f830152613e0881613dcf565b9050919050565b7f4552433732313a20746f6b656e20616c7265616479206d696e746564000000005f82015250565b5f613e43601c83612832565b9150613e4e82613e0f565b602082019050919050565b5f6020820190508181035f830152613e7081613e37565b9050919050565b7f4552433732313a207472616e7366657220746f206e6f6e2045524337323152655f8201527f63656976657220696d706c656d656e7465720000000000000000000000000000602082015250565b5f613ed1603283612832565b9150613edc82613e77565b604082019050919050565b5f6020820190508181035f830152613efe81613ec5565b9050919050565b5f613f0f826128d2565b91507fffffffffffffffffffffffffffffffffffffffffffffffffffffffffffffffff8203613f4157613f40613d14565b5b600182019050919050565b7f4e487b71000000000000000000000000000000000000000000000000000000005f52601260045260245ffd5b5f613f83826128d2565b9150613f8e836128d2565b925082613f9e57613f9d613f4c565b5b828204905092915050565b5f613fb3826128d2565b9150613fbe836128d2565b925082613fce57613fcd613f4c565b5b828206905092915050565b5f81519050919050565b5f82825260208201905092915050565b5f613ffd82613fd9565b6140078185613fe3565b9350614017818560208601612842565b6140208161286a565b840191505092915050565b5f60808201905061403e5f830187612960565b61404b6020830186612960565b61405860408301856129f0565b818103606083015261406a8184613ff3565b905095945050505050565b5f81519050614083816127a0565b92915050565b5f6020828403121561409e5761409d61276d565b5b5f6140ab84828501614075565b91505092915050565b7f4e487b71000000000000000000000000000000000000000000000000000000005f52603160045260245ffdfea2646970667358221220b20484dc1b612aceea6c80b5fbcadf924f86885bf638d6b288ac0f00d16d48ef64736f6c63430008150033",
  "immutableReferences": {},
  "source": "// SPDX-License-Identifier: MIT\r\npragma solidity ^0.8.0;\r\n\r\nimport \"@openzeppelin/contracts/token/ERC721/extensions/ERC721Enumerable.sol\";\r\nimport \"@openzeppelin/contracts/access/Ownable.sol\";\r\n\r\ncontract CarNFT is ERC721Enumerable, Ownable {\r\n    struct CarDetails {\r\n        string VIN;\r\n        string make;\r\n        string model;\r\n        uint256 year;\r\n        bool isForSale;\r\n        uint256 price;\r\n    }\r\n\r\n    mapping(uint256 => CarDetails) private _carDetails;\r\n\r\n    event CarUpdated(uint256 tokenId);\r\n\r\n    constructor() ERC721(\"CarNFT\", \"CAR\") {}\r\n\r\n    function mint(\r\n        address to,\r\n        string memory VIN,\r\n        string memory make,\r\n        string memory model,\r\n        uint256 year\r\n    ) public onlyOwner returns (uint256 tokenId) {\r\n        tokenId = totalSupply();\r\n        _mint(to, tokenId);\r\n        _carDetails[tokenId] = CarDetails(VIN, make, model, year, false, 0);\r\n    }\r\n\r\n    function getCarDetails(uint256 tokenId) public view returns (CarDetails memory) {\r\n        return _carDetails[tokenId];\r\n    }\r\n\r\n    function setForSale(uint256 tokenId, bool isForSale, uint256 price) public {\r\n        require(ownerOf(tokenId) == msg.sender, \"Not the owner\");\r\n        _carDetails[tokenId].isForSale = isForSale;\r\n        _carDetails[tokenId].price = price;\r\n        emit CarUpdated(tokenId);\r\n    }\r\n\r\n    function updateCarDetails(\r\n        uint256 tokenId,\r\n        string memory VIN,\r\n        string memory make,\r\n        string memory model,\r\n        uint256 year\r\n    ) public {\r\n        require(ownerOf(tokenId) == msg.sender, \"Not the owner\");\r\n        _carDetails[tokenId] = CarDetails(VIN, make, model, year, _carDetails[tokenId].isForSale, _carDetails[tokenId].price);\r\n        emit CarUpdated(tokenId);\r\n    }\r\n\r\n    function purchaseCar(uint256 tokenId) public payable {\r\n        require(_carDetails[tokenId].isForSale, \"Car not for sale\");\r\n        require(msg.value == _carDetails[tokenId].price, \"Price mismatch\");\r\n        address seller = ownerOf(tokenId);\r\n        payable(seller).transfer(msg.value);\r\n        _transfer(seller, msg.sender, tokenId);\r\n        _carDetails[tokenId].isForSale = false;\r\n    }\r\n}\r\n",
  "sourcePath": "C:\\Users\\fredt\\ethglobal_project\\server\\contracts\\CarNFT.sol",
  "compiler": {
    "name": "solc",
    "version": "0.8.21+commit.d9974bed.Emscripten.clang"
  },
  "schemaVersion": "3.4.15",
  "updatedAt": "2023-08-08T04:16:37.420Z",
  "devdoc": {
    "events": {
      "Approval(address,address,uint256)": {
        "details": "Emitted when `owner` enables `approved` to manage the `tokenId` token."
      },
      "ApprovalForAll(address,address,bool)": {
        "details": "Emitted when `owner` enables or disables (`approved`) `operator` to manage all of its assets."
      },
      "Transfer(address,address,uint256)": {
        "details": "Emitted when `tokenId` token is transferred from `from` to `to`."
      }
    },
    "kind": "dev",
    "methods": {
      "approve(address,uint256)": {
        "details": "See {IERC721-approve}."
      },
      "balanceOf(address)": {
        "details": "See {IERC721-balanceOf}."
      },
      "getApproved(uint256)": {
        "details": "See {IERC721-getApproved}."
      },
      "isApprovedForAll(address,address)": {
        "details": "See {IERC721-isApprovedForAll}."
      },
      "name()": {
        "details": "See {IERC721Metadata-name}."
      },
      "owner()": {
        "details": "Returns the address of the current owner."
      },
      "ownerOf(uint256)": {
        "details": "See {IERC721-ownerOf}."
      },
      "renounceOwnership()": {
        "details": "Leaves the contract without owner. It will not be possible to call `onlyOwner` functions anymore. Can only be called by the current owner. NOTE: Renouncing ownership will leave the contract without an owner, thereby removing any functionality that is only available to the owner."
      },
      "safeTransferFrom(address,address,uint256)": {
        "details": "See {IERC721-safeTransferFrom}."
      },
      "safeTransferFrom(address,address,uint256,bytes)": {
        "details": "See {IERC721-safeTransferFrom}."
      },
      "setApprovalForAll(address,bool)": {
        "details": "See {IERC721-setApprovalForAll}."
      },
      "supportsInterface(bytes4)": {
        "details": "See {IERC165-supportsInterface}."
      },
      "symbol()": {
        "details": "See {IERC721Metadata-symbol}."
      },
      "tokenByIndex(uint256)": {
        "details": "See {IERC721Enumerable-tokenByIndex}."
      },
      "tokenOfOwnerByIndex(address,uint256)": {
        "details": "See {IERC721Enumerable-tokenOfOwnerByIndex}."
      },
      "tokenURI(uint256)": {
        "details": "See {IERC721Metadata-tokenURI}."
      },
      "totalSupply()": {
        "details": "See {IERC721Enumerable-totalSupply}."
      },
      "transferFrom(address,address,uint256)": {
        "details": "See {IERC721-transferFrom}."
      },
      "transferOwnership(address)": {
        "details": "Transfers ownership of the contract to a new account (`newOwner`). Can only be called by the current owner."
      }
    },
    "version": 1
  },
  "userdoc": {
    "kind": "user",
    "methods": {},
    "version": 1
  }
}