{
  "contractName": "CarNFT",
  "abi": [
    {
      "inputs": [],
      "stateMutability": "nonpayable",
      "type": "constructor"
    },
    {
      "anonymous": false,
      "inputs": [
        {
          "indexed": true,
          "internalType": "address",
          "name": "owner",
          "type": "address"
        },
        {
          "indexed": true,
          "internalType": "address",
          "name": "approved",
          "type": "address"
        },
        {
          "indexed": true,
          "internalType": "uint256",
          "name": "tokenId",
          "type": "uint256"
        }
      ],
      "name": "Approval",
      "type": "event"
    },
    {
      "anonymous": false,
      "inputs": [
        {
          "indexed": true,
          "internalType": "address",
          "name": "owner",
          "type": "address"
        },
        {
          "indexed": true,
          "internalType": "address",
          "name": "operator",
          "type": "address"
        },
        {
          "indexed": false,
          "internalType": "bool",
          "name": "approved",
          "type": "bool"
        }
      ],
      "name": "ApprovalForAll",
      "type": "event"
    },
    {
      "anonymous": false,
      "inputs": [
        {
          "indexed": false,
          "internalType": "string",
          "name": "VIN",
          "type": "string"
        }
      ],
      "name": "CarUpdated",
      "type": "event"
    },
    {
      "anonymous": false,
      "inputs": [
        {
          "indexed": true,
          "internalType": "address",
          "name": "previousOwner",
          "type": "address"
        },
        {
          "indexed": true,
          "internalType": "address",
          "name": "newOwner",
          "type": "address"
        }
      ],
      "name": "OwnershipTransferred",
      "type": "event"
    },
    {
      "anonymous": false,
      "inputs": [
        {
          "indexed": true,
          "internalType": "address",
          "name": "from",
          "type": "address"
        },
        {
          "indexed": true,
          "internalType": "address",
          "name": "to",
          "type": "address"
        },
        {
          "indexed": true,
          "internalType": "uint256",
          "name": "tokenId",
          "type": "uint256"
        }
      ],
      "name": "Transfer",
      "type": "event"
    },
    {
      "inputs": [
        {
          "internalType": "uint256",
          "name": "",
          "type": "uint256"
        }
      ],
      "name": "VINs",
      "outputs": [
        {
          "internalType": "string",
          "name": "",
          "type": "string"
        }
      ],
      "stateMutability": "view",
      "type": "function",
      "constant": true
    },
    {
      "inputs": [
        {
          "internalType": "address",
          "name": "to",
          "type": "address"
        },
        {
          "internalType": "uint256",
          "name": "tokenId",
          "type": "uint256"
        }
      ],
      "name": "approve",
      "outputs": [],
      "stateMutability": "nonpayable",
      "type": "function"
    },
    {
      "inputs": [
        {
          "internalType": "address",
          "name": "owner",
          "type": "address"
        }
      ],
      "name": "balanceOf",
      "outputs": [
        {
          "internalType": "uint256",
          "name": "",
          "type": "uint256"
        }
      ],
      "stateMutability": "view",
      "type": "function",
      "constant": true
    },
    {
      "inputs": [
        {
          "internalType": "uint256",
          "name": "tokenId",
          "type": "uint256"
        }
      ],
      "name": "getApproved",
      "outputs": [
        {
          "internalType": "address",
          "name": "",
          "type": "address"
        }
      ],
      "stateMutability": "view",
      "type": "function",
      "constant": true
    },
    {
      "inputs": [
        {
          "internalType": "address",
          "name": "owner",
          "type": "address"
        },
        {
          "internalType": "address",
          "name": "operator",
          "type": "address"
        }
      ],
      "name": "isApprovedForAll",
      "outputs": [
        {
          "internalType": "bool",
          "name": "",
          "type": "bool"
        }
      ],
      "stateMutability": "view",
      "type": "function",
      "constant": true
    },
    {
      "inputs": [],
      "name": "name",
      "outputs": [
        {
          "internalType": "string",
          "name": "",
          "type": "string"
        }
      ],
      "stateMutability": "view",
      "type": "function",
      "constant": true
    },
    {
      "inputs": [],
      "name": "owner",
      "outputs": [
        {
          "internalType": "address",
          "name": "",
          "type": "address"
        }
      ],
      "stateMutability": "view",
      "type": "function",
      "constant": true
    },
    {
      "inputs": [
        {
          "internalType": "uint256",
          "name": "tokenId",
          "type": "uint256"
        }
      ],
      "name": "ownerOf",
      "outputs": [
        {
          "internalType": "address",
          "name": "",
          "type": "address"
        }
      ],
      "stateMutability": "view",
      "type": "function",
      "constant": true
    },
    {
      "inputs": [],
      "name": "renounceOwnership",
      "outputs": [],
      "stateMutability": "nonpayable",
      "type": "function"
    },
    {
      "inputs": [
        {
          "internalType": "address",
          "name": "from",
          "type": "address"
        },
        {
          "internalType": "address",
          "name": "to",
          "type": "address"
        },
        {
          "internalType": "uint256",
          "name": "tokenId",
          "type": "uint256"
        }
      ],
      "name": "safeTransferFrom",
      "outputs": [],
      "stateMutability": "nonpayable",
      "type": "function"
    },
    {
      "inputs": [
        {
          "internalType": "address",
          "name": "from",
          "type": "address"
        },
        {
          "internalType": "address",
          "name": "to",
          "type": "address"
        },
        {
          "internalType": "uint256",
          "name": "tokenId",
          "type": "uint256"
        },
        {
          "internalType": "bytes",
          "name": "data",
          "type": "bytes"
        }
      ],
      "name": "safeTransferFrom",
      "outputs": [],
      "stateMutability": "nonpayable",
      "type": "function"
    },
    {
      "inputs": [
        {
          "internalType": "address",
          "name": "operator",
          "type": "address"
        },
        {
          "internalType": "bool",
          "name": "approved",
          "type": "bool"
        }
      ],
      "name": "setApprovalForAll",
      "outputs": [],
      "stateMutability": "nonpayable",
      "type": "function"
    },
    {
      "inputs": [
        {
          "internalType": "bytes4",
          "name": "interfaceId",
          "type": "bytes4"
        }
      ],
      "name": "supportsInterface",
      "outputs": [
        {
          "internalType": "bool",
          "name": "",
          "type": "bool"
        }
      ],
      "stateMutability": "view",
      "type": "function",
      "constant": true
    },
    {
      "inputs": [],
      "name": "symbol",
      "outputs": [
        {
          "internalType": "string",
          "name": "",
          "type": "string"
        }
      ],
      "stateMutability": "view",
      "type": "function",
      "constant": true
    },
    {
      "inputs": [
        {
          "internalType": "uint256",
          "name": "index",
          "type": "uint256"
        }
      ],
      "name": "tokenByIndex",
      "outputs": [
        {
          "internalType": "uint256",
          "name": "",
          "type": "uint256"
        }
      ],
      "stateMutability": "view",
      "type": "function",
      "constant": true
    },
    {
      "inputs": [
        {
          "internalType": "address",
          "name": "owner",
          "type": "address"
        },
        {
          "internalType": "uint256",
          "name": "index",
          "type": "uint256"
        }
      ],
      "name": "tokenOfOwnerByIndex",
      "outputs": [
        {
          "internalType": "uint256",
          "name": "",
          "type": "uint256"
        }
      ],
      "stateMutability": "view",
      "type": "function",
      "constant": true
    },
    {
      "inputs": [
        {
          "internalType": "uint256",
          "name": "tokenId",
          "type": "uint256"
        }
      ],
      "name": "tokenURI",
      "outputs": [
        {
          "internalType": "string",
          "name": "",
          "type": "string"
        }
      ],
      "stateMutability": "view",
      "type": "function",
      "constant": true
    },
    {
      "inputs": [],
      "name": "totalSupply",
      "outputs": [
        {
          "internalType": "uint256",
          "name": "",
          "type": "uint256"
        }
      ],
      "stateMutability": "view",
      "type": "function",
      "constant": true
    },
    {
      "inputs": [
        {
          "internalType": "address",
          "name": "from",
          "type": "address"
        },
        {
          "internalType": "address",
          "name": "to",
          "type": "address"
        },
        {
          "internalType": "uint256",
          "name": "tokenId",
          "type": "uint256"
        }
      ],
      "name": "transferFrom",
      "outputs": [],
      "stateMutability": "nonpayable",
      "type": "function"
    },
    {
      "inputs": [
        {
          "internalType": "address",
          "name": "newOwner",
          "type": "address"
        }
      ],
      "name": "transferOwnership",
      "outputs": [],
      "stateMutability": "nonpayable",
      "type": "function"
    },
    {
      "inputs": [
        {
          "internalType": "address",
          "name": "to",
          "type": "address"
        },
        {
          "internalType": "string",
          "name": "VIN",
          "type": "string"
        },
        {
          "internalType": "string",
          "name": "make",
          "type": "string"
        },
        {
          "internalType": "string",
          "name": "model",
          "type": "string"
        },
        {
          "internalType": "uint256",
          "name": "year",
          "type": "uint256"
        }
      ],
      "name": "mint",
      "outputs": [
        {
          "internalType": "uint256",
          "name": "tokenId",
          "type": "uint256"
        }
      ],
      "stateMutability": "nonpayable",
      "type": "function"
    },
    {
      "inputs": [
        {
          "internalType": "string",
          "name": "VIN",
          "type": "string"
        },
        {
          "internalType": "bool",
          "name": "isForSale",
          "type": "bool"
        },
        {
          "internalType": "uint256",
          "name": "price",
          "type": "uint256"
        }
      ],
      "name": "setForSale",
      "outputs": [],
      "stateMutability": "nonpayable",
      "type": "function"
    },
    {
      "inputs": [
        {
          "internalType": "string",
          "name": "VIN",
          "type": "string"
        },
        {
          "internalType": "string",
          "name": "make",
          "type": "string"
        },
        {
          "internalType": "string",
          "name": "model",
          "type": "string"
        },
        {
          "internalType": "uint256",
          "name": "year",
          "type": "uint256"
        }
      ],
      "name": "updateCarDetails",
      "outputs": [],
      "stateMutability": "nonpayable",
      "type": "function"
    },
    {
      "inputs": [
        {
          "internalType": "string",
          "name": "VIN",
          "type": "string"
        }
      ],
      "name": "purchaseCar",
      "outputs": [],
      "stateMutability": "payable",
      "type": "function",
      "payable": true
    },
    {
      "inputs": [
        {
          "internalType": "string",
          "name": "VIN",
          "type": "string"
        }
      ],
      "name": "getCarDetails",
      "outputs": [
        {
          "components": [
            {
              "internalType": "string",
              "name": "make",
              "type": "string"
            },
            {
              "internalType": "string",
              "name": "model",
              "type": "string"
            },
            {
              "internalType": "uint256",
              "name": "year",
              "type": "uint256"
            },
            {
              "internalType": "bool",
              "name": "isForSale",
              "type": "bool"
            },
            {
              "internalType": "uint256",
              "name": "price",
              "type": "uint256"
            }
          ],
          "internalType": "struct CarNFT.CarDetails",
          "name": "",
          "type": "tuple"
        }
      ],
      "stateMutability": "view",
      "type": "function",
      "constant": true
    },
    {
      "inputs": [],
      "name": "getAllCars",
      "outputs": [
        {
          "components": [
            {
              "internalType": "string",
              "name": "make",
              "type": "string"
            },
            {
              "internalType": "string",
              "name": "model",
              "type": "string"
            },
            {
              "internalType": "uint256",
              "name": "year",
              "type": "uint256"
            },
            {
              "internalType": "bool",
              "name": "isForSale",
              "type": "bool"
            },
            {
              "internalType": "uint256",
              "name": "price",
              "type": "uint256"
            }
          ],
          "internalType": "struct CarNFT.CarDetails[]",
          "name": "",
          "type": "tuple[]"
        }
      ],
      "stateMutability": "view",
      "type": "function",
      "constant": true
    },
    {
      "inputs": [],
      "name": "getCarsOnSale",
      "outputs": [
        {
          "components": [
            {
              "internalType": "string",
              "name": "make",
              "type": "string"
            },
            {
              "internalType": "string",
              "name": "model",
              "type": "string"
            },
            {
              "internalType": "uint256",
              "name": "year",
              "type": "uint256"
            },
            {
              "internalType": "bool",
              "name": "isForSale",
              "type": "bool"
            },
            {
              "internalType": "uint256",
              "name": "price",
              "type": "uint256"
            }
          ],
          "internalType": "struct CarNFT.CarDetails[]",
          "name": "",
          "type": "tuple[]"
        }
      ],
      "stateMutability": "view",
      "type": "function",
      "constant": true
    },
    {
      "inputs": [
        {
          "internalType": "string",
          "name": "VIN",
          "type": "string"
        }
      ],
      "name": "tokenIdFromVIN",
      "outputs": [
        {
          "internalType": "uint256",
          "name": "tokenId",
          "type": "uint256"
        }
      ],
      "stateMutability": "view",
      "type": "function",
      "constant": true
    }
  ],
  "bytecode": "0x60806040523480156200001157600080fd5b506040518060400160405280600681526020017f4361724e465400000000000000000000000000000000000000000000000000008152506040518060400160405280600381526020017f4341520000000000000000000000000000000000000000000000000000000000815250816000908051906020019062000096929190620001a6565b508060019080519060200190620000af929190620001a6565b505050620000d2620000c6620000d860201b60201c565b620000e060201b60201c565b620002bb565b600033905090565b6000600a60009054906101000a900473ffffffffffffffffffffffffffffffffffffffff16905081600a60006101000a81548173ffffffffffffffffffffffffffffffffffffffff021916908373ffffffffffffffffffffffffffffffffffffffff1602179055508173ffffffffffffffffffffffffffffffffffffffff168173ffffffffffffffffffffffffffffffffffffffff167f8be0079c531659141344cd1fd0a4f28419497f9722a3daafe3b4186f6b6457e060405160405180910390a35050565b828054620001b49062000256565b90600052602060002090601f016020900481019282620001d8576000855562000224565b82601f10620001f357805160ff191683800117855562000224565b8280016001018555821562000224579182015b828111156200022357825182559160200191906001019062000206565b5b50905062000233919062000237565b5090565b5b808211156200025257600081600090555060010162000238565b5090565b600060028204905060018216806200026f57607f821691505b602082108114156200028657620002856200028c565b5b50919050565b7f4e487b7100000000000000000000000000000000000000000000000000000000600052602260045260246000fd5b614cc280620002cb6000396000f3fe6080604052600436106101b75760003560e01c80638da5cb5b116100ec578063b88d4fde1161008a578063d872acac11610064578063d872acac14610635578063e985e9c514610672578063f2fde38b146106af578063f969db77146106d8576101b7565b8063b88d4fde146105a4578063c87b56dd146105cd578063d5b35b801461060a576101b7565b80639832fb59116100c65780639832fb59146104ea5780639ee74dd114610513578063a22cb46514610550578063abfe5d5714610579576101b7565b80638da5cb5b1461046b57806392fc937f1461049657806395d89b41146104bf576101b7565b806342842e0e1161015957806370a082311161013357806370a08231146103be578063715018a6146103fb578063743f6127146104125780638c09e4091461044f576101b7565b806342842e0e1461031b5780634f6ccce7146103445780636352211e14610381576101b7565b8063095ea7b311610195578063095ea7b31461026157806318160ddd1461028a57806323b872dd146102b55780632f745c59146102de576101b7565b806301ffc9a7146101bc57806306fdde03146101f9578063081812fc14610224575b600080fd5b3480156101c857600080fd5b506101e360048036038101906101de919061384f565b610715565b6040516101f091906140dd565b60405180910390f35b34801561020557600080fd5b5061020e61078f565b60405161021b91906140f8565b60405180910390f35b34801561023057600080fd5b5061024b600480360381019061024691906139f4565b610821565b6040516102589190614054565b60405180910390f35b34801561026d57600080fd5b5061028860048036038101906102839190613813565b610867565b005b34801561029657600080fd5b5061029f61097f565b6040516102ac91906143bc565b60405180910390f35b3480156102c157600080fd5b506102dc60048036038101906102d7919061364e565b61098c565b005b3480156102ea57600080fd5b5061030560048036038101906103009190613813565b6109ec565b60405161031291906143bc565b60405180910390f35b34801561032757600080fd5b50610342600480360381019061033d919061364e565b610a91565b005b34801561035057600080fd5b5061036b600480360381019061036691906139f4565b610ab1565b60405161037891906143bc565b60405180910390f35b34801561038d57600080fd5b506103a860048036038101906103a391906139f4565b610b48565b6040516103b59190614054565b60405180910390f35b3480156103ca57600080fd5b506103e560048036038101906103e091906135e9565b610bcf565b6040516103f291906143bc565b60405180910390f35b34801561040757600080fd5b50610410610c87565b005b34801561041e57600080fd5b50610439600480360381019061043491906138a1565b610c9b565b60405161044691906143bc565b60405180910390f35b610469600480360381019061046491906138a1565b610cce565b005b34801561047757600080fd5b50610480610e4c565b60405161048d9190614054565b60405180910390f35b3480156104a257600080fd5b506104bd60048036038101906104b891906138e2565b610e76565b005b3480156104cb57600080fd5b506104d4610f8f565b6040516104e191906140f8565b60405180910390f35b3480156104f657600080fd5b50610511600480360381019061050c9190613949565b611021565b005b34801561051f57600080fd5b5061053a60048036038101906105359190613754565b6111e3565b60405161054791906143bc565b60405180910390f35b34801561055c57600080fd5b5061057760048036038101906105729190613718565b61134a565b005b34801561058557600080fd5b5061058e611360565b60405161059b91906140bb565b60405180910390f35b3480156105b057600080fd5b506105cb60048036038101906105c6919061369d565b611613565b005b3480156105d957600080fd5b506105f460048036038101906105ef91906139f4565b611675565b60405161060191906140f8565b60405180910390f35b34801561061657600080fd5b5061061f6116dd565b60405161062c91906140bb565b60405180910390f35b34801561064157600080fd5b5061065c600480360381019061065791906138a1565b611abf565b604051610669919061439a565b60405180910390f35b34801561067e57600080fd5b5061069960048036038101906106949190613612565b611c4a565b6040516106a691906140dd565b60405180910390f35b3480156106bb57600080fd5b506106d660048036038101906106d191906135e9565b611cde565b005b3480156106e457600080fd5b506106ff60048036038101906106fa91906139f4565b611d62565b60405161070c91906140f8565b60405180910390f35b60007f780e9d63000000000000000000000000000000000000000000000000000000007bffffffffffffffffffffffffffffffffffffffffffffffffffffffff1916827bffffffffffffffffffffffffffffffffffffffffffffffffffffffff19161480610788575061078782611e0e565b5b9050919050565b60606000805461079e906145ea565b80601f01602080910402602001604051908101604052809291908181526020018280546107ca906145ea565b80156108175780601f106107ec57610100808354040283529160200191610817565b820191906000526020600020905b8154815290600101906020018083116107fa57829003601f168201915b5050505050905090565b600061082c82611ef0565b6004600083815260200190815260200160002060009054906101000a900473ffffffffffffffffffffffffffffffffffffffff169050919050565b600061087282610b48565b90508073ffffffffffffffffffffffffffffffffffffffff168373ffffffffffffffffffffffffffffffffffffffff1614156108e3576040517f08c379a00000000000000000000000000000000000000000000000000000000081526004016108da906142da565b60405180910390fd5b8073ffffffffffffffffffffffffffffffffffffffff16610902611f3b565b73ffffffffffffffffffffffffffffffffffffffff16148061093157506109308161092b611f3b565b611c4a565b5b610970576040517f08c379a0000000000000000000000000000000000000000000000000000000008152600401610967906142fa565b60405180910390fd5b61097a8383611f43565b505050565b6000600880549050905090565b61099d610997611f3b565b82611ffc565b6109dc576040517f08c379a00000000000000000000000000000000000000000000000000000000081526004016109d39061411a565b60405180910390fd5b6109e7838383612091565b505050565b60006109f783610bcf565b8210610a38576040517f08c379a0000000000000000000000000000000000000000000000000000000008152600401610a2f9061413a565b60405180910390fd5b600660008473ffffffffffffffffffffffffffffffffffffffff1673ffffffffffffffffffffffffffffffffffffffff168152602001908152602001600020600083815260200190815260200160002054905092915050565b610aac83838360405180602001604052806000815250611613565b505050565b6000610abb61097f565b8210610afc576040517f08c379a0000000000000000000000000000000000000000000000000000000008152600401610af39061431a565b60405180910390fd5b60088281548110610b36577f4e487b7100000000000000000000000000000000000000000000000000000000600052603260045260246000fd5b90600052602060002001549050919050565b600080610b548361238b565b9050600073ffffffffffffffffffffffffffffffffffffffff168173ffffffffffffffffffffffffffffffffffffffff161415610bc6576040517f08c379a0000000000000000000000000000000000000000000000000000000008152600401610bbd906142ba565b60405180910390fd5b80915050919050565b60008073ffffffffffffffffffffffffffffffffffffffff168273ffffffffffffffffffffffffffffffffffffffff161415610c40576040517f08c379a0000000000000000000000000000000000000000000000000000000008152600401610c379061421a565b60405180910390fd5b600360008373ffffffffffffffffffffffffffffffffffffffff1673ffffffffffffffffffffffffffffffffffffffff168152602001908152602001600020549050919050565b610c8f6123c8565b610c996000612446565b565b600081604051602001610cae9190614002565b6040516020818303038152906040528051906020012060001c9050919050565b600b81604051610cde9190614002565b908152602001604051809103902060030160009054906101000a900460ff16610d3c576040517f08c379a0000000000000000000000000000000000000000000000000000000008152600401610d339061435a565b60405180910390fd5b600b81604051610d4c9190614002565b9081526020016040518091039020600401543414610d9f576040517f08c379a0000000000000000000000000000000000000000000000000000000008152600401610d969061429a565b60405180910390fd5b6000610db2610dad83610c9b565b610b48565b90508073ffffffffffffffffffffffffffffffffffffffff166108fc349081150290604051600060405180830381858888f19350505050158015610dfa573d6000803e3d6000fd5b50610e0e8133610e0985610c9b565b612091565b6000600b83604051610e209190614002565b908152602001604051809103902060030160006101000a81548160ff0219169083151502179055505050565b6000600a60009054906101000a900473ffffffffffffffffffffffffffffffffffffffff16905090565b3373ffffffffffffffffffffffffffffffffffffffff16610e9e610e9985610c9b565b610b48565b73ffffffffffffffffffffffffffffffffffffffff1614610ef4576040517f08c379a0000000000000000000000000000000000000000000000000000000008152600401610eeb9061423a565b60405180910390fd5b81600b84604051610f059190614002565b908152602001604051809103902060030160006101000a81548160ff02191690831515021790555080600b84604051610f3e9190614002565b9081526020016040518091039020600401819055507f0d882911616e20ab40dff1fa29703b0f931526f42e82eb332e03be6aba5699c683604051610f8291906140f8565b60405180910390a1505050565b606060018054610f9e906145ea565b80601f0160208091040260200160405190810160405280929190818152602001828054610fca906145ea565b80156110175780601f10610fec57610100808354040283529160200191611017565b820191906000526020600020905b815481529060010190602001808311610ffa57829003601f168201915b5050505050905090565b3373ffffffffffffffffffffffffffffffffffffffff1661104961104486610c9b565b610b48565b73ffffffffffffffffffffffffffffffffffffffff161461109f576040517f08c379a00000000000000000000000000000000000000000000000000000000081526004016110969061423a565b60405180910390fd5b6040518060a00160405280848152602001838152602001828152602001600b866040516110cc9190614002565b908152602001604051809103902060030160009054906101000a900460ff1615158152602001600b866040516111029190614002565b908152602001604051809103902060040154815250600b856040516111279190614002565b908152602001604051809103902060008201518160000190805190602001906111519291906133dc565b50602082015181600101908051906020019061116e9291906133dc565b506040820151816002015560608201518160030160006101000a81548160ff021916908315150217905550608082015181600401559050507f0d882911616e20ab40dff1fa29703b0f931526f42e82eb332e03be6aba5699c6846040516111d591906140f8565b60405180910390a150505050565b60006111ed6123c8565b6111f68561250c565b15611236576040517f08c379a000000000000000000000000000000000000000000000000000000000815260040161122d9061437a565b60405180910390fd5b61123f85610c9b565b905061124b868261253a565b6040518060a001604052808581526020018481526020018381526020016000151581526020016000815250600b866040516112869190614002565b908152602001604051809103902060008201518160000190805190602001906112b09291906133dc565b5060208201518160010190805190602001906112cd9291906133dc565b506040820151816002015560608201518160030160006101000a81548160ff02191690831515021790555060808201518160040155905050600c859080600181540180825580915050600190039060005260206000200160009091909190915090805190602001906113409291906133dc565b5095945050505050565b61135c611355611f3b565b8383612758565b5050565b60606000600c8054905067ffffffffffffffff8111156113a9577f4e487b7100000000000000000000000000000000000000000000000000000000600052604160045260246000fd5b6040519080825280602002602001820160405280156113e257816020015b6113cf613462565b8152602001906001900390816113c75790505b50905060005b600c8054905081101561160b57600b600c8281548110611431577f4e487b7100000000000000000000000000000000000000000000000000000000600052603260045260246000fd5b90600052602060002001604051611448919061403d565b90815260200160405180910390206040518060a0016040529081600082018054611471906145ea565b80601f016020809104026020016040519081016040528092919081815260200182805461149d906145ea565b80156114ea5780601f106114bf576101008083540402835291602001916114ea565b820191906000526020600020905b8154815290600101906020018083116114cd57829003601f168201915b50505050508152602001600182018054611503906145ea565b80601f016020809104026020016040519081016040528092919081815260200182805461152f906145ea565b801561157c5780601f106115515761010080835404028352916020019161157c565b820191906000526020600020905b81548152906001019060200180831161155f57829003601f168201915b50505050508152602001600282015481526020016003820160009054906101000a900460ff161515151581526020016004820154815250508282815181106115ed577f4e487b7100000000000000000000000000000000000000000000000000000000600052603260045260246000fd5b602002602001018190525080806116039061464d565b9150506113e8565b508091505090565b61162461161e611f3b565b83611ffc565b611663576040517f08c379a000000000000000000000000000000000000000000000000000000000815260040161165a9061411a565b60405180910390fd5b61166f848484846128c5565b50505050565b606061168082611ef0565b600061168a612921565b905060008151116116aa57604051806020016040528060008152506116d5565b806116b484612938565b6040516020016116c5929190614019565b6040516020818303038152906040525b915050919050565b60606000805b600c8054905081101561178957600b600c828154811061172c577f4e487b7100000000000000000000000000000000000000000000000000000000600052603260045260246000fd5b90600052602060002001604051611743919061403d565b908152602001604051809103902060030160009054906101000a900460ff16156117765781806117729061464d565b9250505b80806117819061464d565b9150506116e3565b5060008167ffffffffffffffff8111156117cc577f4e487b7100000000000000000000000000000000000000000000000000000000600052604160045260246000fd5b60405190808252806020026020018201604052801561180557816020015b6117f2613462565b8152602001906001900390816117ea5790505b5090506000805b600c80549050811015611ab557600b600c8281548110611855577f4e487b7100000000000000000000000000000000000000000000000000000000600052603260045260246000fd5b9060005260206000200160405161186c919061403d565b908152602001604051809103902060030160009054906101000a900460ff1615611aa257600b600c82815481106118cc577f4e487b7100000000000000000000000000000000000000000000000000000000600052603260045260246000fd5b906000526020600020016040516118e3919061403d565b90815260200160405180910390206040518060a001604052908160008201805461190c906145ea565b80601f0160208091040260200160405190810160405280929190818152602001828054611938906145ea565b80156119855780601f1061195a57610100808354040283529160200191611985565b820191906000526020600020905b81548152906001019060200180831161196857829003601f168201915b5050505050815260200160018201805461199e906145ea565b80601f01602080910402602001604051908101604052809291908181526020018280546119ca906145ea565b8015611a175780601f106119ec57610100808354040283529160200191611a17565b820191906000526020600020905b8154815290600101906020018083116119fa57829003601f168201915b50505050508152602001600282015481526020016003820160009054906101000a900460ff16151515158152602001600482015481525050838381518110611a88577f4e487b7100000000000000000000000000000000000000000000000000000000600052603260045260246000fd5b60200260200101819052508180611a9e9061464d565b9250505b8080611aad9061464d565b91505061180c565b5081935050505090565b611ac7613462565b600b82604051611ad79190614002565b90815260200160405180910390206040518060a0016040529081600082018054611b00906145ea565b80601f0160208091040260200160405190810160405280929190818152602001828054611b2c906145ea565b8015611b795780601f10611b4e57610100808354040283529160200191611b79565b820191906000526020600020905b815481529060010190602001808311611b5c57829003601f168201915b50505050508152602001600182018054611b92906145ea565b80601f0160208091040260200160405190810160405280929190818152602001828054611bbe906145ea565b8015611c0b5780601f10611be057610100808354040283529160200191611c0b565b820191906000526020600020905b815481529060010190602001808311611bee57829003601f168201915b50505050508152602001600282015481526020016003820160009054906101000a900460ff161515151581526020016004820154815250509050919050565b6000600560008473ffffffffffffffffffffffffffffffffffffffff1673ffffffffffffffffffffffffffffffffffffffff16815260200190815260200160002060008373ffffffffffffffffffffffffffffffffffffffff1673ffffffffffffffffffffffffffffffffffffffff16815260200190815260200160002060009054906101000a900460ff16905092915050565b611ce66123c8565b600073ffffffffffffffffffffffffffffffffffffffff168173ffffffffffffffffffffffffffffffffffffffff161415611d56576040517f08c379a0000000000000000000000000000000000000000000000000000000008152600401611d4d9061417a565b60405180910390fd5b611d5f81612446565b50565b600c8181548110611d7257600080fd5b906000526020600020016000915090508054611d8d906145ea565b80601f0160208091040260200160405190810160405280929190818152602001828054611db9906145ea565b8015611e065780601f10611ddb57610100808354040283529160200191611e06565b820191906000526020600020905b815481529060010190602001808311611de957829003601f168201915b505050505081565b60007f80ac58cd000000000000000000000000000000000000000000000000000000007bffffffffffffffffffffffffffffffffffffffffffffffffffffffff1916827bffffffffffffffffffffffffffffffffffffffffffffffffffffffff19161480611ed957507f5b5e139f000000000000000000000000000000000000000000000000000000007bffffffffffffffffffffffffffffffffffffffffffffffffffffffff1916827bffffffffffffffffffffffffffffffffffffffffffffffffffffffff1916145b80611ee95750611ee882612a5c565b5b9050919050565b611ef981612ac6565b611f38576040517f08c379a0000000000000000000000000000000000000000000000000000000008152600401611f2f906142ba565b60405180910390fd5b50565b600033905090565b816004600083815260200190815260200160002060006101000a81548173ffffffffffffffffffffffffffffffffffffffff021916908373ffffffffffffffffffffffffffffffffffffffff160217905550808273ffffffffffffffffffffffffffffffffffffffff16611fb683610b48565b73ffffffffffffffffffffffffffffffffffffffff167f8c5be1e5ebec7d5bd14f71427d1e84f3dd0314c0f7b2291e5b200ac8c7c3b92560405160405180910390a45050565b60008061200883610b48565b90508073ffffffffffffffffffffffffffffffffffffffff168473ffffffffffffffffffffffffffffffffffffffff16148061204a57506120498185611c4a565b5b8061208857508373ffffffffffffffffffffffffffffffffffffffff1661207084610821565b73ffffffffffffffffffffffffffffffffffffffff16145b91505092915050565b8273ffffffffffffffffffffffffffffffffffffffff166120b182610b48565b73ffffffffffffffffffffffffffffffffffffffff1614612107576040517f08c379a00000000000000000000000000000000000000000000000000000000081526004016120fe9061419a565b60405180910390fd5b600073ffffffffffffffffffffffffffffffffffffffff168273ffffffffffffffffffffffffffffffffffffffff161415612177576040517f08c379a000000000000000000000000000000000000000000000000000000000815260040161216e906141da565b60405180910390fd5b6121848383836001612b07565b8273ffffffffffffffffffffffffffffffffffffffff166121a482610b48565b73ffffffffffffffffffffffffffffffffffffffff16146121fa576040517f08c379a00000000000000000000000000000000000000000000000000000000081526004016121f19061419a565b60405180910390fd5b6004600082815260200190815260200160002060006101000a81549073ffffffffffffffffffffffffffffffffffffffff02191690556001600360008573ffffffffffffffffffffffffffffffffffffffff1673ffffffffffffffffffffffffffffffffffffffff168152602001908152602001600020600082825403925050819055506001600360008473ffffffffffffffffffffffffffffffffffffffff1673ffffffffffffffffffffffffffffffffffffffff16815260200190815260200160002060008282540192505081905550816002600083815260200190815260200160002060006101000a81548173ffffffffffffffffffffffffffffffffffffffff021916908373ffffffffffffffffffffffffffffffffffffffff160217905550808273ffffffffffffffffffffffffffffffffffffffff168473ffffffffffffffffffffffffffffffffffffffff167fddf252ad1be2c89b69c2b068fc378daa952ba7f163c4a11628f55a4df523b3ef60405160405180910390a46123868383836001612c67565b505050565b60006002600083815260200190815260200160002060009054906101000a900473ffffffffffffffffffffffffffffffffffffffff169050919050565b6123d0611f3b565b73ffffffffffffffffffffffffffffffffffffffff166123ee610e4c565b73ffffffffffffffffffffffffffffffffffffffff1614612444576040517f08c379a000000000000000000000000000000000000000000000000000000000815260040161243b9061427a565b60405180910390fd5b565b6000600a60009054906101000a900473ffffffffffffffffffffffffffffffffffffffff16905081600a60006101000a81548173ffffffffffffffffffffffffffffffffffffffff021916908373ffffffffffffffffffffffffffffffffffffffff1602179055508173ffffffffffffffffffffffffffffffffffffffff168173ffffffffffffffffffffffffffffffffffffffff167f8be0079c531659141344cd1fd0a4f28419497f9722a3daafe3b4186f6b6457e060405160405180910390a35050565b600080600b8360405161251f9190614002565b90815260200160405180910390206002015414159050919050565b600073ffffffffffffffffffffffffffffffffffffffff168273ffffffffffffffffffffffffffffffffffffffff1614156125aa576040517f08c379a00000000000000000000000000000000000000000000000000000000081526004016125a19061425a565b60405180910390fd5b6125b381612ac6565b156125f3576040517f08c379a00000000000000000000000000000000000000000000000000000000081526004016125ea906141ba565b60405180910390fd5b612601600083836001612b07565b61260a81612ac6565b1561264a576040517f08c379a0000000000000000000000000000000000000000000000000000000008152600401612641906141ba565b60405180910390fd5b6001600360008473ffffffffffffffffffffffffffffffffffffffff1673ffffffffffffffffffffffffffffffffffffffff16815260200190815260200160002060008282540192505081905550816002600083815260200190815260200160002060006101000a81548173ffffffffffffffffffffffffffffffffffffffff021916908373ffffffffffffffffffffffffffffffffffffffff160217905550808273ffffffffffffffffffffffffffffffffffffffff16600073ffffffffffffffffffffffffffffffffffffffff167fddf252ad1be2c89b69c2b068fc378daa952ba7f163c4a11628f55a4df523b3ef60405160405180910390a4612754600083836001612c67565b5050565b8173ffffffffffffffffffffffffffffffffffffffff168373ffffffffffffffffffffffffffffffffffffffff1614156127c7576040517f08c379a00000000000000000000000000000000000000000000000000000000081526004016127be906141fa565b60405180910390fd5b80600560008573ffffffffffffffffffffffffffffffffffffffff1673ffffffffffffffffffffffffffffffffffffffff16815260200190815260200160002060008473ffffffffffffffffffffffffffffffffffffffff1673ffffffffffffffffffffffffffffffffffffffff16815260200190815260200160002060006101000a81548160ff0219169083151502179055508173ffffffffffffffffffffffffffffffffffffffff168373ffffffffffffffffffffffffffffffffffffffff167f17307eab39ab6107e8899845ad3d59bd9653f200f220920489ca2b5937696c31836040516128b891906140dd565b60405180910390a3505050565b6128d0848484612091565b6128dc84848484612c6d565b61291b576040517f08c379a00000000000000000000000000000000000000000000000000000000081526004016129129061415a565b60405180910390fd5b50505050565b606060405180602001604052806000815250905090565b60606000600161294784612e04565b01905060008167ffffffffffffffff81111561298c577f4e487b7100000000000000000000000000000000000000000000000000000000600052604160045260246000fd5b6040519080825280601f01601f1916602001820160405280156129be5781602001600182028036833780820191505090505b509050600082602001820190505b600115612a51578080600190039150507f3031323334353637383961626364656600000000000000000000000000000000600a86061a8153600a8581612a3b577f4e487b7100000000000000000000000000000000000000000000000000000000600052601260045260246000fd5b0494506000851415612a4c57612a51565b6129cc565b819350505050919050565b60007f01ffc9a7000000000000000000000000000000000000000000000000000000007bffffffffffffffffffffffffffffffffffffffffffffffffffffffff1916827bffffffffffffffffffffffffffffffffffffffffffffffffffffffff1916149050919050565b60008073ffffffffffffffffffffffffffffffffffffffff16612ae88361238b565b73ffffffffffffffffffffffffffffffffffffffff1614159050919050565b612b138484848461303b565b6001811115612b57576040517f08c379a0000000000000000000000000000000000000000000000000000000008152600401612b4e9061433a565b60405180910390fd5b6000829050600073ffffffffffffffffffffffffffffffffffffffff168573ffffffffffffffffffffffffffffffffffffffff161415612b9f57612b9a81613041565b612bde565b8373ffffffffffffffffffffffffffffffffffffffff168573ffffffffffffffffffffffffffffffffffffffff1614612bdd57612bdc858261308a565b5b5b600073ffffffffffffffffffffffffffffffffffffffff168473ffffffffffffffffffffffffffffffffffffffff161415612c2157612c1c816131f7565b612c60565b8473ffffffffffffffffffffffffffffffffffffffff168473ffffffffffffffffffffffffffffffffffffffff1614612c5f57612c5e848261333a565b5b5b5050505050565b50505050565b6000612c8e8473ffffffffffffffffffffffffffffffffffffffff166133b9565b15612df7578373ffffffffffffffffffffffffffffffffffffffff1663150b7a02612cb7611f3b565b8786866040518563ffffffff1660e01b8152600401612cd9949392919061406f565b602060405180830381600087803b158015612cf357600080fd5b505af1925050508015612d2457506040513d601f19601f82011682018060405250810190612d219190613878565b60015b612da7573d8060008114612d54576040519150601f19603f3d011682016040523d82523d6000602084013e612d59565b606091505b50600081511415612d9f576040517f08c379a0000000000000000000000000000000000000000000000000000000008152600401612d969061415a565b60405180910390fd5b805181602001fd5b63150b7a0260e01b7bffffffffffffffffffffffffffffffffffffffffffffffffffffffff1916817bffffffffffffffffffffffffffffffffffffffffffffffffffffffff191614915050612dfc565b600190505b949350505050565b600080600090507a184f03e93ff9f4daa797ed6e38ed64bf6a1f0100000000000000008310612e88577a184f03e93ff9f4daa797ed6e38ed64bf6a1f0100000000000000008381612e7e577f4e487b7100000000000000000000000000000000000000000000000000000000600052601260045260246000fd5b0492506040810190505b6d04ee2d6d415b85acef81000000008310612eeb576d04ee2d6d415b85acef81000000008381612ee1577f4e487b7100000000000000000000000000000000000000000000000000000000600052601260045260246000fd5b0492506020810190505b662386f26fc100008310612f4057662386f26fc100008381612f36577f4e487b7100000000000000000000000000000000000000000000000000000000600052601260045260246000fd5b0492506010810190505b6305f5e1008310612f8f576305f5e1008381612f85577f4e487b7100000000000000000000000000000000000000000000000000000000600052601260045260246000fd5b0492506008810190505b6127108310612fda576127108381612fd0577f4e487b7100000000000000000000000000000000000000000000000000000000600052601260045260246000fd5b0492506004810190505b606483106130235760648381613019577f4e487b7100000000000000000000000000000000000000000000000000000000600052601260045260246000fd5b0492506002810190505b600a8310613032576001810190505b80915050919050565b50505050565b6008805490506009600083815260200190815260200160002081905550600881908060018154018082558091505060019003906000526020600020016000909190919091505550565b6000600161309784610bcf565b6130a19190614500565b9050600060076000848152602001908152602001600020549050818114613186576000600660008673ffffffffffffffffffffffffffffffffffffffff1673ffffffffffffffffffffffffffffffffffffffff168152602001908152602001600020600084815260200190815260200160002054905080600660008773ffffffffffffffffffffffffffffffffffffffff1673ffffffffffffffffffffffffffffffffffffffff168152602001908152602001600020600084815260200190815260200160002081905550816007600083815260200190815260200160002081905550505b6007600084815260200190815260200160002060009055600660008573ffffffffffffffffffffffffffffffffffffffff1673ffffffffffffffffffffffffffffffffffffffff16815260200190815260200160002060008381526020019081526020016000206000905550505050565b6000600160088054905061320b9190614500565b9050600060096000848152602001908152602001600020549050600060088381548110613261577f4e487b7100000000000000000000000000000000000000000000000000000000600052603260045260246000fd5b9060005260206000200154905080600883815481106132a9577f4e487b7100000000000000000000000000000000000000000000000000000000600052603260045260246000fd5b90600052602060002001819055508160096000838152602001908152602001600020819055506009600085815260200190815260200160002060009055600880548061331e577f4e487b7100000000000000000000000000000000000000000000000000000000600052603160045260246000fd5b6001900381819060005260206000200160009055905550505050565b600061334583610bcf565b905081600660008573ffffffffffffffffffffffffffffffffffffffff1673ffffffffffffffffffffffffffffffffffffffff168152602001908152602001600020600083815260200190815260200160002081905550806007600084815260200190815260200160002081905550505050565b6000808273ffffffffffffffffffffffffffffffffffffffff163b119050919050565b8280546133e8906145ea565b90600052602060002090601f01602090048101928261340a5760008555613451565b82601f1061342357805160ff1916838001178555613451565b82800160010185558215613451579182015b82811115613450578251825591602001919060010190613435565b5b50905061345e9190613493565b5090565b6040518060a00160405280606081526020016060815260200160008152602001600015158152602001600081525090565b5b808211156134ac576000816000905550600101613494565b5090565b60006134c36134be846143fc565b6143d7565b9050828152602081018484840111156134db57600080fd5b6134e68482856145a8565b509392505050565b60006135016134fc8461442d565b6143d7565b90508281526020810184848401111561351957600080fd5b6135248482856145a8565b509392505050565b60008135905061353b81614c30565b92915050565b60008135905061355081614c47565b92915050565b60008135905061356581614c5e565b92915050565b60008151905061357a81614c5e565b92915050565b600082601f83011261359157600080fd5b81356135a18482602086016134b0565b91505092915050565b600082601f8301126135bb57600080fd5b81356135cb8482602086016134ee565b91505092915050565b6000813590506135e381614c75565b92915050565b6000602082840312156135fb57600080fd5b60006136098482850161352c565b91505092915050565b6000806040838503121561362557600080fd5b60006136338582860161352c565b92505060206136448582860161352c565b9150509250929050565b60008060006060848603121561366357600080fd5b60006136718682870161352c565b93505060206136828682870161352c565b9250506040613693868287016135d4565b9150509250925092565b600080600080608085870312156136b357600080fd5b60006136c18782880161352c565b94505060206136d28782880161352c565b93505060406136e3878288016135d4565b925050606085013567ffffffffffffffff81111561370057600080fd5b61370c87828801613580565b91505092959194509250565b6000806040838503121561372b57600080fd5b60006137398582860161352c565b925050602061374a85828601613541565b9150509250929050565b600080600080600060a0868803121561376c57600080fd5b600061377a8882890161352c565b955050602086013567ffffffffffffffff81111561379757600080fd5b6137a3888289016135aa565b945050604086013567ffffffffffffffff8111156137c057600080fd5b6137cc888289016135aa565b935050606086013567ffffffffffffffff8111156137e957600080fd5b6137f5888289016135aa565b9250506080613806888289016135d4565b9150509295509295909350565b6000806040838503121561382657600080fd5b60006138348582860161352c565b9250506020613845858286016135d4565b9150509250929050565b60006020828403121561386157600080fd5b600061386f84828501613556565b91505092915050565b60006020828403121561388a57600080fd5b60006138988482850161356b565b91505092915050565b6000602082840312156138b357600080fd5b600082013567ffffffffffffffff8111156138cd57600080fd5b6138d9848285016135aa565b91505092915050565b6000806000606084860312156138f757600080fd5b600084013567ffffffffffffffff81111561391157600080fd5b61391d868287016135aa565b935050602061392e86828701613541565b925050604061393f868287016135d4565b9150509250925092565b6000806000806080858703121561395f57600080fd5b600085013567ffffffffffffffff81111561397957600080fd5b613985878288016135aa565b945050602085013567ffffffffffffffff8111156139a257600080fd5b6139ae878288016135aa565b935050604085013567ffffffffffffffff8111156139cb57600080fd5b6139d7878288016135aa565b92505060606139e8878288016135d4565b91505092959194509250565b600060208284031215613a0657600080fd5b6000613a14848285016135d4565b91505092915050565b6000613a298383613eea565b905092915050565b613a3a81614534565b82525050565b6000613a4b82614483565b613a5581856144b1565b935083602082028501613a678561445e565b8060005b85811015613aa35784840389528151613a848582613a1d565b9450613a8f836144a4565b925060208a01995050600181019050613a6b565b50829750879550505050505092915050565b613abe81614546565b82525050565b613acd81614546565b82525050565b6000613ade8261448e565b613ae881856144c2565b9350613af88185602086016145b7565b613b0181614723565b840191505092915050565b6000613b1782614499565b613b2181856144d3565b9350613b318185602086016145b7565b613b3a81614723565b840191505092915050565b6000613b5082614499565b613b5a81856144e4565b9350613b6a8185602086016145b7565b613b7381614723565b840191505092915050565b6000613b8982614499565b613b9381856144f5565b9350613ba38185602086016145b7565b80840191505092915050565b60008154613bbc816145ea565b613bc681866144f5565b94506001821660008114613be15760018114613bf257613c25565b60ff19831686528186019350613c25565b613bfb8561446e565b60005b83811015613c1d57815481890152600182019150602081019050613bfe565b838801955050505b50505092915050565b6000613c3b602d836144e4565b9150613c4682614734565b604082019050919050565b6000613c5e602b836144e4565b9150613c6982614783565b604082019050919050565b6000613c816032836144e4565b9150613c8c826147d2565b604082019050919050565b6000613ca46026836144e4565b9150613caf82614821565b604082019050919050565b6000613cc76025836144e4565b9150613cd282614870565b604082019050919050565b6000613cea601c836144e4565b9150613cf5826148bf565b602082019050919050565b6000613d0d6024836144e4565b9150613d18826148e8565b604082019050919050565b6000613d306019836144e4565b9150613d3b82614937565b602082019050919050565b6000613d536029836144e4565b9150613d5e82614960565b604082019050919050565b6000613d76600d836144e4565b9150613d81826149af565b602082019050919050565b6000613d996020836144e4565b9150613da4826149d8565b602082019050919050565b6000613dbc6020836144e4565b9150613dc782614a01565b602082019050919050565b6000613ddf600e836144e4565b9150613dea82614a2a565b602082019050919050565b6000613e026018836144e4565b9150613e0d82614a53565b602082019050919050565b6000613e256021836144e4565b9150613e3082614a7c565b604082019050919050565b6000613e48603d836144e4565b9150613e5382614acb565b604082019050919050565b6000613e6b602c836144e4565b9150613e7682614b1a565b604082019050919050565b6000613e8e6035836144e4565b9150613e9982614b69565b604082019050919050565b6000613eb16010836144e4565b9150613ebc82614bb8565b602082019050919050565b6000613ed46023836144e4565b9150613edf82614be1565b604082019050919050565b600060a0830160008301518482036000860152613f078282613b0c565b91505060208301518482036020860152613f218282613b0c565b9150506040830151613f366040860182613fe4565b506060830151613f496060860182613ab5565b506080830151613f5c6080860182613fe4565b508091505092915050565b600060a0830160008301518482036000860152613f848282613b0c565b91505060208301518482036020860152613f9e8282613b0c565b9150506040830151613fb36040860182613fe4565b506060830151613fc66060860182613ab5565b506080830151613fd96080860182613fe4565b508091505092915050565b613fed8161459e565b82525050565b613ffc8161459e565b82525050565b600061400e8284613b7e565b915081905092915050565b60006140258285613b7e565b91506140318284613b7e565b91508190509392505050565b60006140498284613baf565b915081905092915050565b60006020820190506140696000830184613a31565b92915050565b60006080820190506140846000830187613a31565b6140916020830186613a31565b61409e6040830185613ff3565b81810360608301526140b08184613ad3565b905095945050505050565b600060208201905081810360008301526140d58184613a40565b905092915050565b60006020820190506140f26000830184613ac4565b92915050565b600060208201905081810360008301526141128184613b45565b905092915050565b6000602082019050818103600083015261413381613c2e565b9050919050565b6000602082019050818103600083015261415381613c51565b9050919050565b6000602082019050818103600083015261417381613c74565b9050919050565b6000602082019050818103600083015261419381613c97565b9050919050565b600060208201905081810360008301526141b381613cba565b9050919050565b600060208201905081810360008301526141d381613cdd565b9050919050565b600060208201905081810360008301526141f381613d00565b9050919050565b6000602082019050818103600083015261421381613d23565b9050919050565b6000602082019050818103600083015261423381613d46565b9050919050565b6000602082019050818103600083015261425381613d69565b9050919050565b6000602082019050818103600083015261427381613d8c565b9050919050565b6000602082019050818103600083015261429381613daf565b9050919050565b600060208201905081810360008301526142b381613dd2565b9050919050565b600060208201905081810360008301526142d381613df5565b9050919050565b600060208201905081810360008301526142f381613e18565b9050919050565b6000602082019050818103600083015261431381613e3b565b9050919050565b6000602082019050818103600083015261433381613e5e565b9050919050565b6000602082019050818103600083015261435381613e81565b9050919050565b6000602082019050818103600083015261437381613ea4565b9050919050565b6000602082019050818103600083015261439381613ec7565b9050919050565b600060208201905081810360008301526143b48184613f67565b905092915050565b60006020820190506143d16000830184613ff3565b92915050565b60006143e16143f2565b90506143ed828261461c565b919050565b6000604051905090565b600067ffffffffffffffff821115614417576144166146f4565b5b61442082614723565b9050602081019050919050565b600067ffffffffffffffff821115614448576144476146f4565b5b61445182614723565b9050602081019050919050565b6000819050602082019050919050565b60008190508160005260206000209050919050565b600081519050919050565b600081519050919050565b600081519050919050565b6000602082019050919050565b600082825260208201905092915050565b600082825260208201905092915050565b600082825260208201905092915050565b600082825260208201905092915050565b600081905092915050565b600061450b8261459e565b91506145168361459e565b92508282101561452957614528614696565b5b828203905092915050565b600061453f8261457e565b9050919050565b60008115159050919050565b60007fffffffff0000000000000000000000000000000000000000000000000000000082169050919050565b600073ffffffffffffffffffffffffffffffffffffffff82169050919050565b6000819050919050565b82818337600083830152505050565b60005b838110156145d55780820151818401526020810190506145ba565b838111156145e4576000848401525b50505050565b6000600282049050600182168061460257607f821691505b60208210811415614616576146156146c5565b5b50919050565b61462582614723565b810181811067ffffffffffffffff82111715614644576146436146f4565b5b80604052505050565b60006146588261459e565b91507fffffffffffffffffffffffffffffffffffffffffffffffffffffffffffffffff82141561468b5761468a614696565b5b600182019050919050565b7f4e487b7100000000000000000000000000000000000000000000000000000000600052601160045260246000fd5b7f4e487b7100000000000000000000000000000000000000000000000000000000600052602260045260246000fd5b7f4e487b7100000000000000000000000000000000000000000000000000000000600052604160045260246000fd5b6000601f19601f8301169050919050565b7f4552433732313a2063616c6c6572206973206e6f7420746f6b656e206f776e6560008201527f72206f7220617070726f76656400000000000000000000000000000000000000602082015250565b7f455243373231456e756d657261626c653a206f776e657220696e646578206f7560008201527f74206f6620626f756e6473000000000000000000000000000000000000000000602082015250565b7f4552433732313a207472616e7366657220746f206e6f6e20455243373231526560008201527f63656976657220696d706c656d656e7465720000000000000000000000000000602082015250565b7f4f776e61626c653a206e6577206f776e657220697320746865207a65726f206160008201527f6464726573730000000000000000000000000000000000000000000000000000602082015250565b7f4552433732313a207472616e736665722066726f6d20696e636f72726563742060008201527f6f776e6572000000000000000000000000000000000000000000000000000000602082015250565b7f4552433732313a20746f6b656e20616c7265616479206d696e74656400000000600082015250565b7f4552433732313a207472616e7366657220746f20746865207a65726f2061646460008201527f7265737300000000000000000000000000000000000000000000000000000000602082015250565b7f4552433732313a20617070726f766520746f2063616c6c657200000000000000600082015250565b7f4552433732313a2061646472657373207a65726f206973206e6f74206120766160008201527f6c6964206f776e65720000000000000000000000000000000000000000000000602082015250565b7f4e6f7420746865206f776e657200000000000000000000000000000000000000600082015250565b7f4552433732313a206d696e7420746f20746865207a65726f2061646472657373600082015250565b7f4f776e61626c653a2063616c6c6572206973206e6f7420746865206f776e6572600082015250565b7f5072696365206d69736d61746368000000000000000000000000000000000000600082015250565b7f4552433732313a20696e76616c696420746f6b656e2049440000000000000000600082015250565b7f4552433732313a20617070726f76616c20746f2063757272656e74206f776e6560008201527f7200000000000000000000000000000000000000000000000000000000000000602082015250565b7f4552433732313a20617070726f76652063616c6c6572206973206e6f7420746f60008201527f6b656e206f776e6572206f7220617070726f76656420666f7220616c6c000000602082015250565b7f455243373231456e756d657261626c653a20676c6f62616c20696e646578206f60008201527f7574206f6620626f756e64730000000000000000000000000000000000000000602082015250565b7f455243373231456e756d657261626c653a20636f6e736563757469766520747260008201527f616e7366657273206e6f7420737570706f727465640000000000000000000000602082015250565b7f436172206e6f7420666f722073616c6500000000000000000000000000000000600082015250565b7f436172204e465420616c72656164792065786973747320666f7220746869732060008201527f56494e0000000000000000000000000000000000000000000000000000000000602082015250565b614c3981614534565b8114614c4457600080fd5b50565b614c5081614546565b8114614c5b57600080fd5b50565b614c6781614552565b8114614c7257600080fd5b50565b614c7e8161459e565b8114614c8957600080fd5b5056fea2646970667358221220485651fe1de30cdf383710dbef488433f85a85deaf7808c2dfc63f4fe732819564736f6c63430008040033",
  "immutableReferences": {},
  "source": "// SPDX-License-Identifier: MIT\r\npragma solidity ^0.8.0;\r\n\r\nimport \"@openzeppelin/contracts/token/ERC721/extensions/ERC721Enumerable.sol\";\r\nimport \"@openzeppelin/contracts/access/Ownable.sol\";\r\n\r\ncontract CarNFT is ERC721Enumerable, Ownable {\r\n    struct CarDetails {\r\n        string make;\r\n        string model;\r\n        uint256 year;\r\n        bool isForSale;\r\n        uint256 price;\r\n    }\r\n\r\n    mapping(string => CarDetails) private _carDetails;\r\n    string[] public VINs;\r\n\r\n    event CarUpdated(string VIN);\r\n\r\n    constructor() ERC721(\"CarNFT\", \"CAR\") {}\r\n\r\n    function mint(\r\n        address to,\r\n        string memory VIN,\r\n        string memory make,\r\n        string memory model,\r\n        uint256 year\r\n    ) public onlyOwner returns (uint256 tokenId) {\r\n        require(!_carExists(VIN), \"Car NFT already exists for this VIN\");\r\n        tokenId = tokenIdFromVIN(VIN); // Use the updated function here\r\n        _mint(to, tokenId);\r\n        _carDetails[VIN] = CarDetails(make, model, year, false, 0);\r\n        VINs.push(VIN);\r\n    }\r\n\r\n    function _carExists(string memory VIN) private view returns (bool) {\r\n        return _carDetails[VIN].year != 0;\r\n    }\r\n\r\n    function setForSale(string memory VIN, bool isForSale, uint256 price) public {\r\n        require(ownerOf(tokenIdFromVIN(VIN)) == msg.sender, \"Not the owner\");\r\n        _carDetails[VIN].isForSale = isForSale;\r\n        _carDetails[VIN].price = price;\r\n        emit CarUpdated(VIN);\r\n    }\r\n\r\n    function updateCarDetails(\r\n        string memory VIN,\r\n        string memory make,\r\n        string memory model,\r\n        uint256 year\r\n    ) public {\r\n        require(ownerOf(tokenIdFromVIN(VIN)) == msg.sender, \"Not the owner\");\r\n        _carDetails[VIN] = CarDetails(make, model, year, _carDetails[VIN].isForSale, _carDetails[VIN].price);\r\n        emit CarUpdated(VIN);\r\n    }\r\n\r\n    function purchaseCar(string memory VIN) public payable {\r\n        require(_carDetails[VIN].isForSale, \"Car not for sale\");\r\n        require(msg.value == _carDetails[VIN].price, \"Price mismatch\");\r\n        address seller = ownerOf(tokenIdFromVIN(VIN));\r\n        payable(seller).transfer(msg.value);\r\n        _transfer(seller, msg.sender, tokenIdFromVIN(VIN));\r\n        _carDetails[VIN].isForSale = false;\r\n    }\r\n\r\n    function getCarDetails(string memory VIN) public view returns (CarDetails memory) {\r\n        return _carDetails[VIN];\r\n    }\r\n\r\n    function getAllCars() public view returns (CarDetails[] memory) {\r\n        CarDetails[] memory cars = new CarDetails[](VINs.length);\r\n        for (uint i = 0; i < VINs.length; i++) {\r\n            cars[i] = _carDetails[VINs[i]];\r\n        }\r\n        return cars;\r\n    }\r\n\r\n    function getCarsOnSale() public view returns (CarDetails[] memory) {\r\n        uint256 count = 0;\r\n        for (uint i = 0; i < VINs.length; i++) {\r\n            if (_carDetails[VINs[i]].isForSale) {\r\n                count++;\r\n            }\r\n        }\r\n\r\n        CarDetails[] memory carsOnSale = new CarDetails[](count);\r\n        uint256 index = 0;\r\n        for (uint i = 0; i < VINs.length; i++) {\r\n            if (_carDetails[VINs[i]].isForSale) {\r\n                carsOnSale[index] = _carDetails[VINs[i]];\r\n                index++;\r\n            }\r\n        }\r\n        return carsOnSale;\r\n    }\r\n\r\n    function tokenIdFromVIN(string memory VIN) public view returns (uint256 tokenId) {\r\n        return uint256(keccak256(abi.encodePacked(VIN)));\r\n    }\r\n}\r\n",
  "sourcePath": "C:\\Users\\fredt\\ethglobal_project\\server\\contracts\\CarNFT.sol",
  "compiler": {
    "name": "solc",
    "version": "0.8.4+commit.c7e474f2.Emscripten.clang"
  },
  "schemaVersion": "3.4.15",
  "updatedAt": "2023-08-13T07:46:14.755Z",
  "networkType": "ethereum",
  "devdoc": {
    "kind": "dev",
    "methods": {
      "approve(address,uint256)": {
        "details": "See {IERC721-approve}."
      },
      "balanceOf(address)": {
        "details": "See {IERC721-balanceOf}."
      },
      "getApproved(uint256)": {
        "details": "See {IERC721-getApproved}."
      },
      "isApprovedForAll(address,address)": {
        "details": "See {IERC721-isApprovedForAll}."
      },
      "name()": {
        "details": "See {IERC721Metadata-name}."
      },
      "owner()": {
        "details": "Returns the address of the current owner."
      },
      "ownerOf(uint256)": {
        "details": "See {IERC721-ownerOf}."
      },
      "renounceOwnership()": {
        "details": "Leaves the contract without owner. It will not be possible to call `onlyOwner` functions. Can only be called by the current owner. NOTE: Renouncing ownership will leave the contract without an owner, thereby disabling any functionality that is only available to the owner."
      },
      "safeTransferFrom(address,address,uint256)": {
        "details": "See {IERC721-safeTransferFrom}."
      },
      "safeTransferFrom(address,address,uint256,bytes)": {
        "details": "See {IERC721-safeTransferFrom}."
      },
      "setApprovalForAll(address,bool)": {
        "details": "See {IERC721-setApprovalForAll}."
      },
      "supportsInterface(bytes4)": {
        "details": "See {IERC165-supportsInterface}."
      },
      "symbol()": {
        "details": "See {IERC721Metadata-symbol}."
      },
      "tokenByIndex(uint256)": {
        "details": "See {IERC721Enumerable-tokenByIndex}."
      },
      "tokenOfOwnerByIndex(address,uint256)": {
        "details": "See {IERC721Enumerable-tokenOfOwnerByIndex}."
      },
      "tokenURI(uint256)": {
        "details": "See {IERC721Metadata-tokenURI}."
      },
      "totalSupply()": {
        "details": "See {IERC721Enumerable-totalSupply}."
      },
      "transferFrom(address,address,uint256)": {
        "details": "See {IERC721-transferFrom}."
      },
      "transferOwnership(address)": {
        "details": "Transfers ownership of the contract to a new account (`newOwner`). Can only be called by the current owner."
      }
    },
    "version": 1
  },
  "userdoc": {
    "kind": "user",
    "methods": {},
    "version": 1
  }
}