{
  "contractName": "EAS",
  "abi": [
    {
      "anonymous": false,
      "inputs": [
        {
          "indexed": true,
          "internalType": "bytes32",
          "name": "dataHash",
          "type": "bytes32"
        }
      ],
      "name": "AttestationAdded",
      "type": "event"
    },
    {
      "inputs": [
        {
          "internalType": "string",
          "name": "data",
          "type": "string"
        }
      ],
      "name": "attest",
      "outputs": [],
      "stateMutability": "nonpayable",
      "type": "function"
    },
    {
      "inputs": [
        {
          "internalType": "string",
          "name": "data",
          "type": "string"
        }
      ],
      "name": "verify",
      "outputs": [
        {
          "internalType": "bool",
          "name": "",
          "type": "bool"
        }
      ],
      "stateMutability": "view",
      "type": "function",
      "constant": true
    }
  ],
  "bytecode": "0x608060405234801561001057600080fd5b506103de806100206000396000f3fe608060405234801561001057600080fd5b50600436106100365760003560e01c806306431afe1461003b578063bb9c6c3e14610057575b600080fd5b610055600480360381019061005091906101ca565b610087565b005b610071600480360381019061006c91906101ca565b61010e565b60405161007e9190610262565b60405180910390f35b60008160405160200161009a919061024b565b604051602081830303815290604052805190602001209050600160008083815260200190815260200160002060006101000a81548160ff021916908315150217905550807f3fc35a3fbfabaca28002d465e231651eaa9f276f29985a5203f39fd9452b2b7c60405160405180910390a25050565b60008082604051602001610122919061024b565b60405160208183030381529060405280519060200120905060008082815260200190815260200160002060009054906101000a900460ff16915050919050565b6000610175610170846102a2565b61027d565b90508281526020810184848401111561018d57600080fd5b6101988482856102f5565b509392505050565b600082601f8301126101b157600080fd5b81356101c1848260208601610162565b91505092915050565b6000602082840312156101dc57600080fd5b600082013567ffffffffffffffff8111156101f657600080fd5b610202848285016101a0565b91505092915050565b610214816102e9565b82525050565b6000610225826102d3565b61022f81856102de565b935061023f818560208601610304565b80840191505092915050565b6000610257828461021a565b915081905092915050565b6000602082019050610277600083018461020b565b92915050565b6000610287610298565b90506102938282610337565b919050565b6000604051905090565b600067ffffffffffffffff8211156102bd576102bc610368565b5b6102c682610397565b9050602081019050919050565b600081519050919050565b600081905092915050565b60008115159050919050565b82818337600083830152505050565b60005b83811015610322578082015181840152602081019050610307565b83811115610331576000848401525b50505050565b61034082610397565b810181811067ffffffffffffffff8211171561035f5761035e610368565b5b80604052505050565b7f4e487b7100000000000000000000000000000000000000000000000000000000600052604160045260246000fd5b6000601f19601f830116905091905056fea2646970667358221220af3a608aaf8d363e5beef32274ceb44e771502b12b486c1c708ef7a24be7bf6164736f6c63430008040033",
  "immutableReferences": {},
  "source": "// SPDX-License-Identifier: MIT\r\npragma solidity ^0.8.0;\r\n\r\ncontract EAS {\r\n    mapping(bytes32 => bool) private attestations;\r\n\r\n    event AttestationAdded(bytes32 indexed dataHash);\r\n\r\n    function attest(string memory data) public {\r\n        bytes32 dataHash = keccak256(abi.encodePacked(data));\r\n        attestations[dataHash] = true;\r\n        emit AttestationAdded(dataHash);\r\n    }\r\n\r\n    function verify(string memory data) public view returns (bool) {\r\n        bytes32 dataHash = keccak256(abi.encodePacked(data));\r\n        return attestations[dataHash];\r\n    }\r\n}\r\n",
  "sourcePath": "C:\\Users\\fredt\\ethglobal_project\\server\\contracts\\EAS.sol",
  "compiler": {
    "name": "solc",
    "version": "0.8.4+commit.c7e474f2.Emscripten.clang"
  },
  "schemaVersion": "3.4.15",
  "updatedAt": "2023-08-13T07:46:14.773Z",
  "networkType": "ethereum",
  "devdoc": {
    "kind": "dev",
    "methods": {},
    "version": 1
  },
  "userdoc": {
    "kind": "user",
    "methods": {},
    "version": 1
  }
}