{
  "contractName": "MaintenanceRecord",
  "abi": [
    {
      "inputs": [
        {
          "internalType": "address",
          "name": "_carNFT",
          "type": "address"
        },
        {
          "internalType": "address",
          "name": "_eas",
          "type": "address"
        }
      ],
      "stateMutability": "nonpayable",
      "type": "constructor"
    },
    {
      "anonymous": false,
      "inputs": [
        {
          "indexed": true,
          "internalType": "uint256",
          "name": "carId",
          "type": "uint256"
        },
        {
          "indexed": false,
          "internalType": "uint256",
          "name": "recordIndex",
          "type": "uint256"
        }
      ],
      "name": "MaintenanceDeleted",
      "type": "event"
    },
    {
      "anonymous": false,
      "inputs": [
        {
          "indexed": true,
          "internalType": "uint256",
          "name": "carId",
          "type": "uint256"
        },
        {
          "indexed": false,
          "internalType": "uint256",
          "name": "date",
          "type": "uint256"
        },
        {
          "indexed": false,
          "internalType": "string",
          "name": "description",
          "type": "string"
        },
        {
          "indexed": false,
          "internalType": "uint256",
          "name": "cost",
          "type": "uint256"
        },
        {
          "indexed": true,
          "internalType": "address",
          "name": "recordedBy",
          "type": "address"
        }
      ],
      "name": "MaintenanceRecorded",
      "type": "event"
    },
    {
      "anonymous": false,
      "inputs": [
        {
          "indexed": true,
          "internalType": "uint256",
          "name": "carId",
          "type": "uint256"
        },
        {
          "indexed": false,
          "internalType": "uint256",
          "name": "recordIndex",
          "type": "uint256"
        },
        {
          "indexed": false,
          "internalType": "string",
          "name": "newDescription",
          "type": "string"
        },
        {
          "indexed": false,
          "internalType": "uint256",
          "name": "newCost",
          "type": "uint256"
        }
      ],
      "name": "MaintenanceUpdated",
      "type": "event"
    },
    {
      "anonymous": false,
      "inputs": [
        {
          "indexed": true,
          "internalType": "address",
          "name": "previousOwner",
          "type": "address"
        },
        {
          "indexed": true,
          "internalType": "address",
          "name": "newOwner",
          "type": "address"
        }
      ],
      "name": "OwnershipTransferred",
      "type": "event"
    },
    {
      "inputs": [],
      "name": "carNFT",
      "outputs": [
        {
          "internalType": "contract CarNFT",
          "name": "",
          "type": "address"
        }
      ],
      "stateMutability": "view",
      "type": "function",
      "constant": true
    },
    {
      "inputs": [
        {
          "internalType": "uint256",
          "name": "",
          "type": "uint256"
        },
        {
          "internalType": "uint256",
          "name": "",
          "type": "uint256"
        }
      ],
      "name": "carRecords",
      "outputs": [
        {
          "internalType": "uint256",
          "name": "date",
          "type": "uint256"
        },
        {
          "internalType": "string",
          "name": "description",
          "type": "string"
        },
        {
          "internalType": "uint256",
          "name": "cost",
          "type": "uint256"
        },
        {
          "internalType": "address",
          "name": "recordedBy",
          "type": "address"
        },
        {
          "internalType": "bool",
          "name": "exists",
          "type": "bool"
        }
      ],
      "stateMutability": "view",
      "type": "function",
      "constant": true
    },
    {
      "inputs": [],
      "name": "eas",
      "outputs": [
        {
          "internalType": "contract EAS",
          "name": "",
          "type": "address"
        }
      ],
      "stateMutability": "view",
      "type": "function",
      "constant": true
    },
    {
      "inputs": [],
      "name": "owner",
      "outputs": [
        {
          "internalType": "address",
          "name": "",
          "type": "address"
        }
      ],
      "stateMutability": "view",
      "type": "function",
      "constant": true
    },
    {
      "inputs": [],
      "name": "renounceOwnership",
      "outputs": [],
      "stateMutability": "nonpayable",
      "type": "function"
    },
    {
      "inputs": [
        {
          "internalType": "address",
          "name": "newOwner",
          "type": "address"
        }
      ],
      "name": "transferOwnership",
      "outputs": [],
      "stateMutability": "nonpayable",
      "type": "function"
    },
    {
      "inputs": [
        {
          "internalType": "uint256",
          "name": "carId",
          "type": "uint256"
        },
        {
          "internalType": "string",
          "name": "description",
          "type": "string"
        },
        {
          "internalType": "uint256",
          "name": "cost",
          "type": "uint256"
        }
      ],
      "name": "recordMaintenance",
      "outputs": [],
      "stateMutability": "nonpayable",
      "type": "function"
    },
    {
      "inputs": [
        {
          "internalType": "uint256",
          "name": "carId",
          "type": "uint256"
        },
        {
          "internalType": "uint256",
          "name": "recordIndex",
          "type": "uint256"
        },
        {
          "internalType": "string",
          "name": "newDescription",
          "type": "string"
        },
        {
          "internalType": "uint256",
          "name": "newCost",
          "type": "uint256"
        }
      ],
      "name": "updateMaintenance",
      "outputs": [],
      "stateMutability": "nonpayable",
      "type": "function"
    },
    {
      "inputs": [
        {
          "internalType": "uint256",
          "name": "carId",
          "type": "uint256"
        },
        {
          "internalType": "uint256",
          "name": "recordIndex",
          "type": "uint256"
        }
      ],
      "name": "deleteMaintenance",
      "outputs": [],
      "stateMutability": "nonpayable",
      "type": "function"
    },
    {
      "inputs": [
        {
          "internalType": "uint256",
          "name": "carId",
          "type": "uint256"
        }
      ],
      "name": "getMaintenanceRecords",
      "outputs": [
        {
          "components": [
            {
              "internalType": "uint256",
              "name": "date",
              "type": "uint256"
            },
            {
              "internalType": "string",
              "name": "description",
              "type": "string"
            },
            {
              "internalType": "uint256",
              "name": "cost",
              "type": "uint256"
            },
            {
              "internalType": "address",
              "name": "recordedBy",
              "type": "address"
            },
            {
              "internalType": "bool",
              "name": "exists",
              "type": "bool"
            }
          ],
          "internalType": "struct MaintenanceRecord.Record[]",
          "name": "records",
          "type": "tuple[]"
        }
      ],
      "stateMutability": "view",
      "type": "function",
      "constant": true
    }
  ],
  "bytecode": "0x60806040523480156200001157600080fd5b50604051620024f6380380620024f68339818101604052810190620000379190620001c4565b620000576200004b620000e160201b60201c565b620000e960201b60201c565b81600260006101000a81548173ffffffffffffffffffffffffffffffffffffffff021916908373ffffffffffffffffffffffffffffffffffffffff16021790555080600360006101000a81548173ffffffffffffffffffffffffffffffffffffffff021916908373ffffffffffffffffffffffffffffffffffffffff160217905550505062000253565b600033905090565b60008060009054906101000a900473ffffffffffffffffffffffffffffffffffffffff169050816000806101000a81548173ffffffffffffffffffffffffffffffffffffffff021916908373ffffffffffffffffffffffffffffffffffffffff1602179055508173ffffffffffffffffffffffffffffffffffffffff168173ffffffffffffffffffffffffffffffffffffffff167f8be0079c531659141344cd1fd0a4f28419497f9722a3daafe3b4186f6b6457e060405160405180910390a35050565b600081519050620001be8162000239565b92915050565b60008060408385031215620001d857600080fd5b6000620001e885828601620001ad565b9250506020620001fb85828601620001ad565b9150509250929050565b6000620002128262000219565b9050919050565b600073ffffffffffffffffffffffffffffffffffffffff82169050919050565b620002448162000205565b81146200025057600080fd5b50565b61229380620002636000396000f3fe608060405234801561001057600080fd5b506004361061009e5760003560e01c80638da5cb5b116100665780638da5cb5b14610133578063bab7aad714610151578063eaf198ff1461016d578063f2f17bf5146101a1578063f2fde38b146101bf5761009e565b80631becd81d146100a35780633afd9271146100bf5780633b13a22d146100ef578063715018a61461010b5780638150864d14610115575b600080fd5b6100bd60048036038101906100b89190611853565b6101db565b005b6100d960048036038101906100d49190611787565b610517565b6040516100e69190611c1a565b60405180910390f35b610109600480360381019061010491906117b0565b6108c3565b005b610113610c11565b005b61011d610c25565b60405161012a9190611c57565b60405180910390f35b61013b610c4b565b6040516101489190611bff565b60405180910390f35b61016b60048036038101906101669190611817565b610c74565b005b61018760048036038101906101829190611817565b610f4d565b604051610198959493929190611dad565b60405180910390f35b6101a9611055565b6040516101b69190611c3c565b60405180910390f35b6101d960048036038101906101d49190611735565b61107b565b005b60016000858152602001908152602001600020805490508310610233576040517f08c379a000000000000000000000000000000000000000000000000000000000815260040161022a90611c94565b60405180910390fd5b60016000858152602001908152602001600020838154811061027e577f4e487b7100000000000000000000000000000000000000000000000000000000600052603260045260246000fd5b906000526020600020906004020160030160149054906101000a900460ff166102dc576040517f08c379a00000000000000000000000000000000000000000000000000000000081526004016102d390611cd4565b60405180910390fd5b3373ffffffffffffffffffffffffffffffffffffffff1660016000868152602001908152602001600020848154811061033e577f4e487b7100000000000000000000000000000000000000000000000000000000600052603260045260246000fd5b906000526020600020906004020160030160009054906101000a900473ffffffffffffffffffffffffffffffffffffffff1673ffffffffffffffffffffffffffffffffffffffff1614806103c457503373ffffffffffffffffffffffffffffffffffffffff166103ac610c4b565b73ffffffffffffffffffffffffffffffffffffffff16145b610403576040517f08c379a00000000000000000000000000000000000000000000000000000000081526004016103fa90611d34565b60405180910390fd5b8160016000868152602001908152602001600020848154811061044f577f4e487b7100000000000000000000000000000000000000000000000000000000600052603260045260246000fd5b906000526020600020906004020160010190805190602001906104739291906115a4565b50806001600086815260200190815260200160002084815481106104c0577f4e487b7100000000000000000000000000000000000000000000000000000000600052603260045260246000fd5b906000526020600020906004020160020181905550837ffa68b144553d1b215ce8c1cd13e6f09f29461c939d2ebf49ebd60191521864d684848460405161050993929190611d6f565b60405180910390a250505050565b60606000805b60016000858152602001908152602001600020805490508110156105cc57600160008581526020019081526020016000208181548110610586577f4e487b7100000000000000000000000000000000000000000000000000000000600052603260045260246000fd5b906000526020600020906004020160030160149054906101000a900460ff16156105b95781806105b590612003565b9250505b80806105c490612003565b91505061051d565b508067ffffffffffffffff81111561060d577f4e487b7100000000000000000000000000000000000000000000000000000000600052604160045260246000fd5b60405190808252806020026020018201604052801561064657816020015b61063361162a565b81526020019060019003908161062b5790505b5091506000805b60016000868152602001908152602001600020805490508110156108bb576001600086815260200190815260200160002081815481106106b6577f4e487b7100000000000000000000000000000000000000000000000000000000600052603260045260246000fd5b906000526020600020906004020160030160149054906101000a900460ff16156108a857600160008681526020019081526020016000208181548110610725577f4e487b7100000000000000000000000000000000000000000000000000000000600052603260045260246000fd5b90600052602060002090600402016040518060a00160405290816000820154815260200160018201805461075890611fa0565b80601f016020809104026020016040519081016040528092919081815260200182805461078490611fa0565b80156107d15780601f106107a6576101008083540402835291602001916107d1565b820191906000526020600020905b8154815290600101906020018083116107b457829003601f168201915b50505050508152602001600282015481526020016003820160009054906101000a900473ffffffffffffffffffffffffffffffffffffffff1673ffffffffffffffffffffffffffffffffffffffff1673ffffffffffffffffffffffffffffffffffffffff1681526020016003820160149054906101000a900460ff16151515158152505084838151811061088e577f4e487b7100000000000000000000000000000000000000000000000000000000600052603260045260246000fd5b602002602001018190525081806108a490612003565b9250505b80806108b390612003565b91505061064d565b505050919050565b600073ffffffffffffffffffffffffffffffffffffffff16600260009054906101000a900473ffffffffffffffffffffffffffffffffffffffff1673ffffffffffffffffffffffffffffffffffffffff16636352211e856040518263ffffffff1660e01b81526004016109369190611d54565b60206040518083038186803b15801561094e57600080fd5b505afa158015610962573d6000803e3d6000fd5b505050506040513d601f19601f82011682018060405250810190610986919061175e565b73ffffffffffffffffffffffffffffffffffffffff1614156109dd576040517f08c379a00000000000000000000000000000000000000000000000000000000081526004016109d490611d14565b60405180910390fd5b60004290506000339050600160008681526020019081526020016000206040518060a001604052808481526020018681526020018581526020018373ffffffffffffffffffffffffffffffffffffffff168152602001600115158152509080600181540180825580915050600190039060005260206000209060040201600090919091909150600082015181600001556020820151816001019080519060200190610a899291906115a4565b506040820151816002015560608201518160030160006101000a81548173ffffffffffffffffffffffffffffffffffffffff021916908373ffffffffffffffffffffffffffffffffffffffff16021790555060808201518160030160146101000a81548160ff02191690831515021790555050506000610b08866110ff565b604051602001610b189190611bdd565b6040516020818303038152906040529050600360009054906101000a900473ffffffffffffffffffffffffffffffffffffffff1673ffffffffffffffffffffffffffffffffffffffff166306431afe826040518263ffffffff1660e01b8152600401610b849190611c72565b600060405180830381600087803b158015610b9e57600080fd5b505af1158015610bb2573d6000803e3d6000fd5b505050508173ffffffffffffffffffffffffffffffffffffffff16867f11280f6eeb8f18476678140d603f822b204e8b8c16a4054450266223f60b66d8858888604051610c0193929190611d6f565b60405180910390a3505050505050565b610c19611223565b610c2360006112a1565b565b600360009054906101000a900473ffffffffffffffffffffffffffffffffffffffff1681565b60008060009054906101000a900473ffffffffffffffffffffffffffffffffffffffff16905090565b60016000838152602001908152602001600020805490508110610ccc576040517f08c379a0000000000000000000000000000000000000000000000000000000008152600401610cc390611c94565b60405180910390fd5b600160008381526020019081526020016000208181548110610d17577f4e487b7100000000000000000000000000000000000000000000000000000000600052603260045260246000fd5b906000526020600020906004020160030160149054906101000a900460ff16610d75576040517f08c379a0000000000000000000000000000000000000000000000000000000008152600401610d6c90611cd4565b60405180910390fd5b3373ffffffffffffffffffffffffffffffffffffffff16600160008481526020019081526020016000208281548110610dd7577f4e487b7100000000000000000000000000000000000000000000000000000000600052603260045260246000fd5b906000526020600020906004020160030160009054906101000a900473ffffffffffffffffffffffffffffffffffffffff1673ffffffffffffffffffffffffffffffffffffffff161480610e5d57503373ffffffffffffffffffffffffffffffffffffffff16610e45610c4b565b73ffffffffffffffffffffffffffffffffffffffff16145b610e9c576040517f08c379a0000000000000000000000000000000000000000000000000000000008152600401610e9390611d34565b60405180910390fd5b6000600160008481526020019081526020016000208281548110610ee9577f4e487b7100000000000000000000000000000000000000000000000000000000600052603260045260246000fd5b906000526020600020906004020160030160146101000a81548160ff021916908315150217905550817f786f7ac50e6be134eaa1df6778d20d510f6af6d504bdd073a10a5920041f19f782604051610f419190611d54565b60405180910390a25050565b60016020528160005260406000208181548110610f6957600080fd5b906000526020600020906004020160009150915050806000015490806001018054610f9390611fa0565b80601f0160208091040260200160405190810160405280929190818152602001828054610fbf90611fa0565b801561100c5780601f10610fe15761010080835404028352916020019161100c565b820191906000526020600020905b815481529060010190602001808311610fef57829003601f168201915b5050505050908060020154908060030160009054906101000a900473ffffffffffffffffffffffffffffffffffffffff16908060030160149054906101000a900460ff16905085565b600260009054906101000a900473ffffffffffffffffffffffffffffffffffffffff1681565b611083611223565b600073ffffffffffffffffffffffffffffffffffffffff168173ffffffffffffffffffffffffffffffffffffffff1614156110f3576040517f08c379a00000000000000000000000000000000000000000000000000000000081526004016110ea90611cb4565b60405180910390fd5b6110fc816112a1565b50565b60606000600161110e84611365565b01905060008167ffffffffffffffff811115611153577f4e487b7100000000000000000000000000000000000000000000000000000000600052604160045260246000fd5b6040519080825280601f01601f1916602001820160405280156111855781602001600182028036833780820191505090505b509050600082602001820190505b600115611218578080600190039150507f3031323334353637383961626364656600000000000000000000000000000000600a86061a8153600a8581611202577f4e487b7100000000000000000000000000000000000000000000000000000000600052601260045260246000fd5b049450600085141561121357611218565b611193565b819350505050919050565b61122b61159c565b73ffffffffffffffffffffffffffffffffffffffff16611249610c4b565b73ffffffffffffffffffffffffffffffffffffffff161461129f576040517f08c379a000000000000000000000000000000000000000000000000000000000815260040161129690611cf4565b60405180910390fd5b565b60008060009054906101000a900473ffffffffffffffffffffffffffffffffffffffff169050816000806101000a81548173ffffffffffffffffffffffffffffffffffffffff021916908373ffffffffffffffffffffffffffffffffffffffff1602179055508173ffffffffffffffffffffffffffffffffffffffff168173ffffffffffffffffffffffffffffffffffffffff167f8be0079c531659141344cd1fd0a4f28419497f9722a3daafe3b4186f6b6457e060405160405180910390a35050565b600080600090507a184f03e93ff9f4daa797ed6e38ed64bf6a1f01000000000000000083106113e9577a184f03e93ff9f4daa797ed6e38ed64bf6a1f01000000000000000083816113df577f4e487b7100000000000000000000000000000000000000000000000000000000600052601260045260246000fd5b0492506040810190505b6d04ee2d6d415b85acef8100000000831061144c576d04ee2d6d415b85acef81000000008381611442577f4e487b7100000000000000000000000000000000000000000000000000000000600052601260045260246000fd5b0492506020810190505b662386f26fc1000083106114a157662386f26fc100008381611497577f4e487b7100000000000000000000000000000000000000000000000000000000600052601260045260246000fd5b0492506010810190505b6305f5e10083106114f0576305f5e10083816114e6577f4e487b7100000000000000000000000000000000000000000000000000000000600052601260045260246000fd5b0492506008810190505b612710831061153b576127108381611531577f4e487b7100000000000000000000000000000000000000000000000000000000600052601260045260246000fd5b0492506004810190505b60648310611584576064838161157a577f4e487b7100000000000000000000000000000000000000000000000000000000600052601260045260246000fd5b0492506002810190505b600a8310611593576001810190505b80915050919050565b600033905090565b8280546115b090611fa0565b90600052602060002090601f0160209004810192826115d25760008555611619565b82601f106115eb57805160ff1916838001178555611619565b82800160010185558215611619579182015b828111156116185782518255916020019190600101906115fd565b5b5090506116269190611671565b5090565b6040518060a00160405280600081526020016060815260200160008152602001600073ffffffffffffffffffffffffffffffffffffffff1681526020016000151581525090565b5b8082111561168a576000816000905550600101611672565b5090565b60006116a161169c84611e2c565b611e07565b9050828152602081018484840111156116b957600080fd5b6116c4848285611f5e565b509392505050565b6000813590506116db8161222f565b92915050565b6000815190506116f08161222f565b92915050565b600082601f83011261170757600080fd5b813561171784826020860161168e565b91505092915050565b60008135905061172f81612246565b92915050565b60006020828403121561174757600080fd5b6000611755848285016116cc565b91505092915050565b60006020828403121561177057600080fd5b600061177e848285016116e1565b91505092915050565b60006020828403121561179957600080fd5b60006117a784828501611720565b91505092915050565b6000806000606084860312156117c557600080fd5b60006117d386828701611720565b935050602084013567ffffffffffffffff8111156117f057600080fd5b6117fc868287016116f6565b925050604061180d86828701611720565b9150509250925092565b6000806040838503121561182a57600080fd5b600061183885828601611720565b925050602061184985828601611720565b9150509250929050565b6000806000806080858703121561186957600080fd5b600061187787828801611720565b945050602061188887828801611720565b935050604085013567ffffffffffffffff8111156118a557600080fd5b6118b1878288016116f6565b92505060606118c287828801611720565b91505092959194509250565b60006118da8383611b49565b905092915050565b6118eb81611ece565b82525050565b6118fa81611ece565b82525050565b600061190b82611e6d565b6119158185611e90565b93508360208202850161192785611e5d565b8060005b85811015611963578484038952815161194485826118ce565b945061194f83611e83565b925060208a0199505060018101905061192b565b50829750879550505050505092915050565b61197e81611ee0565b82525050565b61198d81611ee0565b82525050565b61199c81611f16565b82525050565b6119ab81611f3a565b82525050565b60006119bc82611e78565b6119c68185611ea1565b93506119d6818560208601611f6d565b6119df816120d9565b840191505092915050565b60006119f582611e78565b6119ff8185611eb2565b9350611a0f818560208601611f6d565b611a18816120d9565b840191505092915050565b6000611a2e82611e78565b611a388185611ec3565b9350611a48818560208601611f6d565b80840191505092915050565b6000611a61601a83611eb2565b9150611a6c826120ea565b602082019050919050565b6000611a84602683611eb2565b9150611a8f82612113565b604082019050919050565b6000611aa7601e83611ec3565b9150611ab282612162565b601e82019050919050565b6000611aca601583611eb2565b9150611ad58261218b565b602082019050919050565b6000611aed602083611eb2565b9150611af8826121b4565b602082019050919050565b6000611b10601683611eb2565b9150611b1b826121dd565b602082019050919050565b6000611b33600e83611eb2565b9150611b3e82612206565b602082019050919050565b600060a083016000830151611b616000860182611bbf565b5060208301518482036020860152611b7982826119b1565b9150506040830151611b8e6040860182611bbf565b506060830151611ba160608601826118e2565b506080830151611bb46080860182611975565b508091505092915050565b611bc881611f0c565b82525050565b611bd781611f0c565b82525050565b6000611be882611a9a565b9150611bf48284611a23565b915081905092915050565b6000602082019050611c1460008301846118f1565b92915050565b60006020820190508181036000830152611c348184611900565b905092915050565b6000602082019050611c516000830184611993565b92915050565b6000602082019050611c6c60008301846119a2565b92915050565b60006020820190508181036000830152611c8c81846119ea565b905092915050565b60006020820190508181036000830152611cad81611a54565b9050919050565b60006020820190508181036000830152611ccd81611a77565b9050919050565b60006020820190508181036000830152611ced81611abd565b9050919050565b60006020820190508181036000830152611d0d81611ae0565b9050919050565b60006020820190508181036000830152611d2d81611b03565b9050919050565b60006020820190508181036000830152611d4d81611b26565b9050919050565b6000602082019050611d696000830184611bce565b92915050565b6000606082019050611d846000830186611bce565b8181036020830152611d9681856119ea565b9050611da56040830184611bce565b949350505050565b600060a082019050611dc26000830188611bce565b8181036020830152611dd481876119ea565b9050611de36040830186611bce565b611df060608301856118f1565b611dfd6080830184611984565b9695505050505050565b6000611e11611e22565b9050611e1d8282611fd2565b919050565b6000604051905090565b600067ffffffffffffffff821115611e4757611e466120aa565b5b611e50826120d9565b9050602081019050919050565b6000819050602082019050919050565b600081519050919050565b600081519050919050565b6000602082019050919050565b600082825260208201905092915050565b600082825260208201905092915050565b600082825260208201905092915050565b600081905092915050565b6000611ed982611eec565b9050919050565b60008115159050919050565b600073ffffffffffffffffffffffffffffffffffffffff82169050919050565b6000819050919050565b6000611f2182611f28565b9050919050565b6000611f3382611eec565b9050919050565b6000611f4582611f4c565b9050919050565b6000611f5782611eec565b9050919050565b82818337600083830152505050565b60005b83811015611f8b578082015181840152602081019050611f70565b83811115611f9a576000848401525b50505050565b60006002820490506001821680611fb857607f821691505b60208210811415611fcc57611fcb61207b565b5b50919050565b611fdb826120d9565b810181811067ffffffffffffffff82111715611ffa57611ff96120aa565b5b80604052505050565b600061200e82611f0c565b91507fffffffffffffffffffffffffffffffffffffffffffffffffffffffffffffffff8214156120415761204061204c565b5b600182019050919050565b7f4e487b7100000000000000000000000000000000000000000000000000000000600052601160045260246000fd5b7f4e487b7100000000000000000000000000000000000000000000000000000000600052602260045260246000fd5b7f4e487b7100000000000000000000000000000000000000000000000000000000600052604160045260246000fd5b6000601f19601f8301169050919050565b7f5265636f726420696e646578206f7574206f6620626f756e6473000000000000600082015250565b7f4f776e61626c653a206e6577206f776e657220697320746865207a65726f206160008201527f6464726573730000000000000000000000000000000000000000000000000000602082015250565b7f4d61696e74656e616e6365206576656e7420666f72206361722049443a200000600082015250565b7f5265636f726420646f6573206e6f742065786973740000000000000000000000600082015250565b7f4f776e61626c653a2063616c6c6572206973206e6f7420746865206f776e6572600082015250565b7f436172204e465420646f6573206e6f7420657869737400000000000000000000600082015250565b7f4e6f7420617574686f72697a6564000000000000000000000000000000000000600082015250565b61223881611ece565b811461224357600080fd5b50565b61224f81611f0c565b811461225a57600080fd5b5056fea26469706673582212209e137fd316e0f74ec3fa1a2990863e1f17e1e569a59098e9690aa19fe666209164736f6c63430008040033",
  "immutableReferences": {},
  "source": "// SPDX-License-Identifier: MIT\r\npragma solidity ^0.8.0;\r\n\r\nimport \"@openzeppelin/contracts/utils/Strings.sol\";\r\nimport \"@openzeppelin/contracts/access/Ownable.sol\";\r\nimport \"./EAS.sol\";  // Import the EAS contract directly.\r\nimport \"./CarNFT.sol\";  // Import the CarNFT contract directly.\r\n\r\ncontract MaintenanceRecord is Ownable {\r\n    struct Record {\r\n        uint256 date;\r\n        string description;\r\n        uint256 cost;\r\n        address recordedBy;\r\n        bool exists;\r\n    }\r\n\r\n    mapping(uint256 => Record[]) public carRecords;\r\n\r\n    CarNFT public carNFT;  // Update the type to CarNFT.\r\n    EAS public eas;  // Update the type to EAS.\r\n\r\n    constructor(address _carNFT, address _eas) {\r\n        carNFT = CarNFT(_carNFT);  // Typecast the address to CarNFT.\r\n        eas = EAS(_eas);  // Typecast the address to EAS.\r\n    }\r\n\r\n    event MaintenanceRecorded(uint256 indexed carId, uint256 date, string description, uint256 cost, address indexed recordedBy);\r\n    event MaintenanceUpdated(uint256 indexed carId, uint256 recordIndex, string newDescription, uint256 newCost);\r\n    event MaintenanceDeleted(uint256 indexed carId, uint256 recordIndex);\r\n\r\n    function recordMaintenance(uint256 carId, string memory description, uint256 cost) public {\r\n        require(address(carNFT.ownerOf(carId)) != address(0), \"Car NFT does not exist\");\r\n        \r\n        uint256 date = block.timestamp;\r\n        address recordedBy = msg.sender;\r\n        \r\n        carRecords[carId].push(Record(date, description, cost, recordedBy, true));\r\n\r\n        // Make an attestation about the maintenance event using EAS\r\n        string memory data = string(abi.encodePacked(\"Maintenance event for car ID: \", Strings.toString(carId)));\r\n        eas.attest(data);\r\n\r\n        emit MaintenanceRecorded(carId, date, description, cost, recordedBy);\r\n    }\r\n\r\n    function updateMaintenance(uint256 carId, uint256 recordIndex, string memory newDescription, uint256 newCost) public {\r\n        require(recordIndex < carRecords[carId].length, \"Record index out of bounds\");\r\n        require(carRecords[carId][recordIndex].exists, \"Record does not exist\");\r\n        require(carRecords[carId][recordIndex].recordedBy == msg.sender || owner() == msg.sender, \"Not authorized\");\r\n\r\n        carRecords[carId][recordIndex].description = newDescription;\r\n        carRecords[carId][recordIndex].cost = newCost;\r\n\r\n        emit MaintenanceUpdated(carId, recordIndex, newDescription, newCost);\r\n    }\r\n\r\n    function deleteMaintenance(uint256 carId, uint256 recordIndex) public {\r\n        require(recordIndex < carRecords[carId].length, \"Record index out of bounds\");\r\n        require(carRecords[carId][recordIndex].exists, \"Record does not exist\");\r\n        require(carRecords[carId][recordIndex].recordedBy == msg.sender || owner() == msg.sender, \"Not authorized\");\r\n\r\n        carRecords[carId][recordIndex].exists = false;\r\n\r\n        emit MaintenanceDeleted(carId, recordIndex);\r\n    }\r\n\r\n    function getMaintenanceRecords(uint256 carId) public view returns (Record[] memory records) {\r\n        uint256 count = 0;\r\n        for (uint256 i = 0; i < carRecords[carId].length; i++) {\r\n            if (carRecords[carId][i].exists) {\r\n                count++;\r\n            }\r\n        }\r\n\r\n        records = new Record[](count);\r\n        uint256 index = 0;\r\n        for (uint256 i = 0; i < carRecords[carId].length; i++) {\r\n            if (carRecords[carId][i].exists) {\r\n                records[index] = carRecords[carId][i];\r\n                index++;\r\n            }\r\n        }\r\n    }\r\n}\r\n",
  "sourcePath": "C:\\Users\\fredt\\ethglobal_project\\server\\contracts\\MaintenanceRecord.sol",
  "compiler": {
    "name": "solc",
    "version": "0.8.4+commit.c7e474f2.Emscripten.clang"
  },
  "schemaVersion": "3.4.15",
  "updatedAt": "2023-08-13T07:46:14.742Z",
  "networkType": "ethereum",
  "devdoc": {
    "kind": "dev",
    "methods": {
      "owner()": {
        "details": "Returns the address of the current owner."
      },
      "renounceOwnership()": {
        "details": "Leaves the contract without owner. It will not be possible to call `onlyOwner` functions. Can only be called by the current owner. NOTE: Renouncing ownership will leave the contract without an owner, thereby disabling any functionality that is only available to the owner."
      },
      "transferOwnership(address)": {
        "details": "Transfers ownership of the contract to a new account (`newOwner`). Can only be called by the current owner."
      }
    },
    "version": 1
  },
  "userdoc": {
    "kind": "user",
    "methods": {},
    "version": 1
  }
}