{
  "contractName": "MaintenanceRecord",
  "abi": [
    {
      "inputs": [
        {
          "internalType": "address",
          "name": "_carNFT",
          "type": "address"
        },
        {
          "internalType": "address",
          "name": "_eas",
          "type": "address"
        }
      ],
      "stateMutability": "nonpayable",
      "type": "constructor"
    },
    {
      "anonymous": false,
      "inputs": [
        {
          "indexed": true,
          "internalType": "uint256",
          "name": "carId",
          "type": "uint256"
        },
        {
          "indexed": false,
          "internalType": "uint256",
          "name": "recordIndex",
          "type": "uint256"
        }
      ],
      "name": "MaintenanceDeleted",
      "type": "event"
    },
    {
      "anonymous": false,
      "inputs": [
        {
          "indexed": true,
          "internalType": "uint256",
          "name": "carId",
          "type": "uint256"
        },
        {
          "indexed": false,
          "internalType": "uint256",
          "name": "date",
          "type": "uint256"
        },
        {
          "indexed": false,
          "internalType": "string",
          "name": "description",
          "type": "string"
        },
        {
          "indexed": false,
          "internalType": "uint256",
          "name": "cost",
          "type": "uint256"
        },
        {
          "indexed": true,
          "internalType": "address",
          "name": "recordedBy",
          "type": "address"
        }
      ],
      "name": "MaintenanceRecorded",
      "type": "event"
    },
    {
      "anonymous": false,
      "inputs": [
        {
          "indexed": true,
          "internalType": "uint256",
          "name": "carId",
          "type": "uint256"
        },
        {
          "indexed": false,
          "internalType": "uint256",
          "name": "recordIndex",
          "type": "uint256"
        },
        {
          "indexed": false,
          "internalType": "string",
          "name": "newDescription",
          "type": "string"
        },
        {
          "indexed": false,
          "internalType": "uint256",
          "name": "newCost",
          "type": "uint256"
        }
      ],
      "name": "MaintenanceUpdated",
      "type": "event"
    },
    {
      "anonymous": false,
      "inputs": [
        {
          "indexed": true,
          "internalType": "address",
          "name": "previousOwner",
          "type": "address"
        },
        {
          "indexed": true,
          "internalType": "address",
          "name": "newOwner",
          "type": "address"
        }
      ],
      "name": "OwnershipTransferred",
      "type": "event"
    },
    {
      "inputs": [],
      "name": "carNFT",
      "outputs": [
        {
          "internalType": "contract ICarNFT",
          "name": "",
          "type": "address"
        }
      ],
      "stateMutability": "view",
      "type": "function"
    },
    {
      "inputs": [
        {
          "internalType": "uint256",
          "name": "",
          "type": "uint256"
        },
        {
          "internalType": "uint256",
          "name": "",
          "type": "uint256"
        }
      ],
      "name": "carRecords",
      "outputs": [
        {
          "internalType": "uint256",
          "name": "date",
          "type": "uint256"
        },
        {
          "internalType": "string",
          "name": "description",
          "type": "string"
        },
        {
          "internalType": "uint256",
          "name": "cost",
          "type": "uint256"
        },
        {
          "internalType": "address",
          "name": "recordedBy",
          "type": "address"
        },
        {
          "internalType": "bool",
          "name": "exists",
          "type": "bool"
        }
      ],
      "stateMutability": "view",
      "type": "function"
    },
    {
      "inputs": [],
      "name": "eas",
      "outputs": [
        {
          "internalType": "contract IEAS",
          "name": "",
          "type": "address"
        }
      ],
      "stateMutability": "view",
      "type": "function"
    },
    {
      "inputs": [],
      "name": "owner",
      "outputs": [
        {
          "internalType": "address",
          "name": "",
          "type": "address"
        }
      ],
      "stateMutability": "view",
      "type": "function"
    },
    {
      "inputs": [],
      "name": "renounceOwnership",
      "outputs": [],
      "stateMutability": "nonpayable",
      "type": "function"
    },
    {
      "inputs": [
        {
          "internalType": "address",
          "name": "newOwner",
          "type": "address"
        }
      ],
      "name": "transferOwnership",
      "outputs": [],
      "stateMutability": "nonpayable",
      "type": "function"
    },
    {
      "inputs": [
        {
          "internalType": "uint256",
          "name": "carId",
          "type": "uint256"
        },
        {
          "internalType": "string",
          "name": "description",
          "type": "string"
        },
        {
          "internalType": "uint256",
          "name": "cost",
          "type": "uint256"
        }
      ],
      "name": "recordMaintenance",
      "outputs": [],
      "stateMutability": "nonpayable",
      "type": "function"
    },
    {
      "inputs": [
        {
          "internalType": "uint256",
          "name": "carId",
          "type": "uint256"
        },
        {
          "internalType": "uint256",
          "name": "recordIndex",
          "type": "uint256"
        },
        {
          "internalType": "string",
          "name": "newDescription",
          "type": "string"
        },
        {
          "internalType": "uint256",
          "name": "newCost",
          "type": "uint256"
        }
      ],
      "name": "updateMaintenance",
      "outputs": [],
      "stateMutability": "nonpayable",
      "type": "function"
    },
    {
      "inputs": [
        {
          "internalType": "uint256",
          "name": "carId",
          "type": "uint256"
        },
        {
          "internalType": "uint256",
          "name": "recordIndex",
          "type": "uint256"
        }
      ],
      "name": "deleteMaintenance",
      "outputs": [],
      "stateMutability": "nonpayable",
      "type": "function"
    },
    {
      "inputs": [
        {
          "internalType": "uint256",
          "name": "carId",
          "type": "uint256"
        }
      ],
      "name": "getMaintenanceRecords",
      "outputs": [
        {
          "components": [
            {
              "internalType": "uint256",
              "name": "date",
              "type": "uint256"
            },
            {
              "internalType": "string",
              "name": "description",
              "type": "string"
            },
            {
              "internalType": "uint256",
              "name": "cost",
              "type": "uint256"
            },
            {
              "internalType": "address",
              "name": "recordedBy",
              "type": "address"
            },
            {
              "internalType": "bool",
              "name": "exists",
              "type": "bool"
            }
          ],
          "internalType": "struct MaintenanceRecord.Record[]",
          "name": "records",
          "type": "tuple[]"
        }
      ],
      "stateMutability": "view",
      "type": "function"
    }
  ],
  "bytecode": "0x608060405234801562000010575f80fd5b50604051620023af380380620023af83398181016040528101906200003691906200020b565b620000566200004a620000de60201b60201c565b620000e560201b60201c565b8160025f6101000a81548173ffffffffffffffffffffffffffffffffffffffff021916908373ffffffffffffffffffffffffffffffffffffffff1602179055508060035f6101000a81548173ffffffffffffffffffffffffffffffffffffffff021916908373ffffffffffffffffffffffffffffffffffffffff160217905550505062000250565b5f33905090565b5f805f9054906101000a900473ffffffffffffffffffffffffffffffffffffffff169050815f806101000a81548173ffffffffffffffffffffffffffffffffffffffff021916908373ffffffffffffffffffffffffffffffffffffffff1602179055508173ffffffffffffffffffffffffffffffffffffffff168173ffffffffffffffffffffffffffffffffffffffff167f8be0079c531659141344cd1fd0a4f28419497f9722a3daafe3b4186f6b6457e060405160405180910390a35050565b5f80fd5b5f73ffffffffffffffffffffffffffffffffffffffff82169050919050565b5f620001d582620001aa565b9050919050565b620001e781620001c9565b8114620001f2575f80fd5b50565b5f815190506200020581620001dc565b92915050565b5f8060408385031215620002245762000223620001a6565b5b5f6200023385828601620001f5565b92505060206200024685828601620001f5565b9150509250929050565b612151806200025e5f395ff3fe608060405234801561000f575f80fd5b506004361061009c575f3560e01c80638da5cb5b116100645780638da5cb5b14610130578063bab7aad71461014e578063eaf198ff1461016a578063f2f17bf51461019e578063f2fde38b146101bc5761009c565b80631becd81d146100a05780633afd9271146100bc5780633b13a22d146100ec578063715018a6146101085780638150864d14610112575b5f80fd5b6100ba60048036038101906100b59190611355565b6101d8565b005b6100d660048036038101906100d191906113d5565b610462565b6040516100e39190611610565b60405180910390f35b61010660048036038101906101019190611630565b61073a565b005b610110610a2e565b005b61011a610ab5565b60405161012791906116f7565b60405180910390f35b610138610ada565b604051610145919061171f565b60405180910390f35b61016860048036038101906101639190611738565b610b01565b005b610184600480360381019061017f9190611738565b610d58565b6040516101959594939291906117dc565b60405180910390f35b6101a6610e56565b6040516101b39190611854565b60405180910390f35b6101d660048036038101906101d19190611897565b610e7b565b005b60015f8581526020019081526020015f2080549050831061022e576040517f08c379a00000000000000000000000000000000000000000000000000000000081526004016102259061190c565b60405180910390fd5b60015f8581526020019081526020015f2083815481106102515761025061192a565b5b905f5260205f20906004020160030160149054906101000a900460ff166102ad576040517f08c379a00000000000000000000000000000000000000000000000000000000081526004016102a4906119a1565b60405180910390fd5b3373ffffffffffffffffffffffffffffffffffffffff1660015f8681526020019081526020015f2084815481106102e7576102e661192a565b5b905f5260205f2090600402016003015f9054906101000a900473ffffffffffffffffffffffffffffffffffffffff1673ffffffffffffffffffffffffffffffffffffffff16148061036a57503373ffffffffffffffffffffffffffffffffffffffff16610352610ada565b73ffffffffffffffffffffffffffffffffffffffff16145b6103a9576040517f08c379a00000000000000000000000000000000000000000000000000000000081526004016103a090611a09565b60405180910390fd5b8160015f8681526020019081526020015f2084815481106103cd576103cc61192a565b5b905f5260205f20906004020160010190816103e89190611c18565b508060015f8681526020019081526020015f20848154811061040d5761040c61192a565b5b905f5260205f20906004020160020181905550837ffa68b144553d1b215ce8c1cd13e6f09f29461c939d2ebf49ebd60191521864d684848460405161045493929190611ce7565b60405180910390a250505050565b60605f805b60015f8581526020019081526020015f20805490508110156104ea5760015f8581526020019081526020015f2081815481106104a6576104a561192a565b5b905f5260205f20906004020160030160149054906101000a900460ff16156104d75781806104d390611d50565b9250505b80806104e290611d50565b915050610467565b508067ffffffffffffffff81111561050557610504611231565b5b60405190808252806020026020018201604052801561053e57816020015b61052b611192565b8152602001906001900390816105235790505b5091505f805b60015f8681526020019081526020015f20805490508110156107325760015f8681526020019081526020015f2081815481106105835761058261192a565b5b905f5260205f20906004020160030160149054906101000a900460ff161561071f5760015f8681526020019081526020015f2081815481106105c8576105c761192a565b5b905f5260205f2090600402016040518060a00160405290815f82015481526020016001820180546105f890611a54565b80601f016020809104026020016040519081016040528092919081815260200182805461062490611a54565b801561066f5780601f106106465761010080835404028352916020019161066f565b820191905f5260205f20905b81548152906001019060200180831161065257829003601f168201915b5050505050815260200160028201548152602001600382015f9054906101000a900473ffffffffffffffffffffffffffffffffffffffff1673ffffffffffffffffffffffffffffffffffffffff1673ffffffffffffffffffffffffffffffffffffffff1681526020016003820160149054906101000a900460ff1615151515815250508483815181106107055761070461192a565b5b6020026020010181905250818061071b90611d50565b9250505b808061072a90611d50565b915050610544565b505050919050565b60025f9054906101000a900473ffffffffffffffffffffffffffffffffffffffff1673ffffffffffffffffffffffffffffffffffffffff16634f558e79846040518263ffffffff1660e01b81526004016107949190611d97565b602060405180830381865afa1580156107af573d5f803e3d5ffd5b505050506040513d601f19601f820116820180604052508101906107d39190611dda565b610812576040517f08c379a000000000000000000000000000000000000000000000000000000000815260040161080990611e4f565b60405180910390fd5b5f4290505f33905060015f8681526020019081526020015f206040518060a001604052808481526020018681526020018581526020018373ffffffffffffffffffffffffffffffffffffffff16815260200160011515815250908060018154018082558091505060019003905f5260205f2090600402015f909190919091505f820151815f015560208201518160010190816108ae9190611c18565b50604082015181600201556060820151816003015f6101000a81548173ffffffffffffffffffffffffffffffffffffffff021916908373ffffffffffffffffffffffffffffffffffffffff16021790555060808201518160030160146101000a81548160ff02191690831515021790555050505f61092b86610f71565b60405160200161093b9190611ef1565b604051602081830303815290604052905060035f9054906101000a900473ffffffffffffffffffffffffffffffffffffffff1673ffffffffffffffffffffffffffffffffffffffff166306431afe826040518263ffffffff1660e01b81526004016109a69190611f12565b5f604051808303815f87803b1580156109bd575f80fd5b505af11580156109cf573d5f803e3d5ffd5b505050508173ffffffffffffffffffffffffffffffffffffffff16867f11280f6eeb8f18476678140d603f822b204e8b8c16a4054450266223f60b66d8858888604051610a1e93929190611ce7565b60405180910390a3505050505050565b610a366110ca565b73ffffffffffffffffffffffffffffffffffffffff16610a54610ada565b73ffffffffffffffffffffffffffffffffffffffff1614610aaa576040517f08c379a0000000000000000000000000000000000000000000000000000000008152600401610aa190611f7c565b60405180910390fd5b610ab35f6110d1565b565b60035f9054906101000a900473ffffffffffffffffffffffffffffffffffffffff1681565b5f805f9054906101000a900473ffffffffffffffffffffffffffffffffffffffff16905090565b60015f8381526020019081526020015f20805490508110610b57576040517f08c379a0000000000000000000000000000000000000000000000000000000008152600401610b4e9061190c565b60405180910390fd5b60015f8381526020019081526020015f208181548110610b7a57610b7961192a565b5b905f5260205f20906004020160030160149054906101000a900460ff16610bd6576040517f08c379a0000000000000000000000000000000000000000000000000000000008152600401610bcd906119a1565b60405180910390fd5b3373ffffffffffffffffffffffffffffffffffffffff1660015f8481526020019081526020015f208281548110610c1057610c0f61192a565b5b905f5260205f2090600402016003015f9054906101000a900473ffffffffffffffffffffffffffffffffffffffff1673ffffffffffffffffffffffffffffffffffffffff161480610c9357503373ffffffffffffffffffffffffffffffffffffffff16610c7b610ada565b73ffffffffffffffffffffffffffffffffffffffff16145b610cd2576040517f08c379a0000000000000000000000000000000000000000000000000000000008152600401610cc990611a09565b60405180910390fd5b5f60015f8481526020019081526020015f208281548110610cf657610cf561192a565b5b905f5260205f20906004020160030160146101000a81548160ff021916908315150217905550817f786f7ac50e6be134eaa1df6778d20d510f6af6d504bdd073a10a5920041f19f782604051610d4c9190611d97565b60405180910390a25050565b6001602052815f5260405f208181548110610d71575f80fd5b905f5260205f2090600402015f9150915050805f015490806001018054610d9790611a54565b80601f0160208091040260200160405190810160405280929190818152602001828054610dc390611a54565b8015610e0e5780601f10610de557610100808354040283529160200191610e0e565b820191905f5260205f20905b815481529060010190602001808311610df157829003601f168201915b505050505090806002015490806003015f9054906101000a900473ffffffffffffffffffffffffffffffffffffffff16908060030160149054906101000a900460ff16905085565b60025f9054906101000a900473ffffffffffffffffffffffffffffffffffffffff1681565b610e836110ca565b73ffffffffffffffffffffffffffffffffffffffff16610ea1610ada565b73ffffffffffffffffffffffffffffffffffffffff1614610ef7576040517f08c379a0000000000000000000000000000000000000000000000000000000008152600401610eee90611f7c565b60405180910390fd5b5f73ffffffffffffffffffffffffffffffffffffffff168173ffffffffffffffffffffffffffffffffffffffff1603610f65576040517f08c379a0000000000000000000000000000000000000000000000000000000008152600401610f5c9061200a565b60405180910390fd5b610f6e816110d1565b50565b60605f8203610fb7576040518060400160405280600181526020017f300000000000000000000000000000000000000000000000000000000000000081525090506110c5565b5f8290505f5b5f8214610fe6578080610fcf90611d50565b915050600a82610fdf9190612055565b9150610fbd565b5f8167ffffffffffffffff81111561100157611000611231565b5b6040519080825280601f01601f1916602001820160405280156110335781602001600182028036833780820191505090505b5090505b5f85146110be5760018261104b9190612085565b9150600a8561105a91906120b8565b603061106691906120e8565b60f81b81838151811061107c5761107b61192a565b5b60200101907effffffffffffffffffffffffffffffffffffffffffffffffffffffffffffff191690815f1a905350600a856110b79190612055565b9450611037565b8093505050505b919050565b5f33905090565b5f805f9054906101000a900473ffffffffffffffffffffffffffffffffffffffff169050815f806101000a81548173ffffffffffffffffffffffffffffffffffffffff021916908373ffffffffffffffffffffffffffffffffffffffff1602179055508173ffffffffffffffffffffffffffffffffffffffff168173ffffffffffffffffffffffffffffffffffffffff167f8be0079c531659141344cd1fd0a4f28419497f9722a3daafe3b4186f6b6457e060405160405180910390a35050565b6040518060a001604052805f8152602001606081526020015f81526020015f73ffffffffffffffffffffffffffffffffffffffff1681526020015f151581525090565b5f604051905090565b5f80fd5b5f80fd5b5f819050919050565b6111f8816111e6565b8114611202575f80fd5b50565b5f81359050611213816111ef565b92915050565b5f80fd5b5f80fd5b5f601f19601f8301169050919050565b7f4e487b71000000000000000000000000000000000000000000000000000000005f52604160045260245ffd5b61126782611221565b810181811067ffffffffffffffff8211171561128657611285611231565b5b80604052505050565b5f6112986111d5565b90506112a4828261125e565b919050565b5f67ffffffffffffffff8211156112c3576112c2611231565b5b6112cc82611221565b9050602081019050919050565b828183375f83830152505050565b5f6112f96112f4846112a9565b61128f565b9050828152602081018484840111156113155761131461121d565b5b6113208482856112d9565b509392505050565b5f82601f83011261133c5761133b611219565b5b813561134c8482602086016112e7565b91505092915050565b5f805f806080858703121561136d5761136c6111de565b5b5f61137a87828801611205565b945050602061138b87828801611205565b935050604085013567ffffffffffffffff8111156113ac576113ab6111e2565b5b6113b887828801611328565b92505060606113c987828801611205565b91505092959194509250565b5f602082840312156113ea576113e96111de565b5b5f6113f784828501611205565b91505092915050565b5f81519050919050565b5f82825260208201905092915050565b5f819050602082019050919050565b611432816111e6565b82525050565b5f81519050919050565b5f82825260208201905092915050565b5f5b8381101561146f578082015181840152602081019050611454565b5f8484015250505050565b5f61148482611438565b61148e8185611442565b935061149e818560208601611452565b6114a781611221565b840191505092915050565b5f73ffffffffffffffffffffffffffffffffffffffff82169050919050565b5f6114db826114b2565b9050919050565b6114eb816114d1565b82525050565b5f8115159050919050565b611505816114f1565b82525050565b5f60a083015f8301516115205f860182611429565b5060208301518482036020860152611538828261147a565b915050604083015161154d6040860182611429565b50606083015161156060608601826114e2565b50608083015161157360808601826114fc565b508091505092915050565b5f611589838361150b565b905092915050565b5f602082019050919050565b5f6115a782611400565b6115b1818561140a565b9350836020820285016115c38561141a565b805f5b858110156115fe57848403895281516115df858261157e565b94506115ea83611591565b925060208a019950506001810190506115c6565b50829750879550505050505092915050565b5f6020820190508181035f830152611628818461159d565b905092915050565b5f805f60608486031215611647576116466111de565b5b5f61165486828701611205565b935050602084013567ffffffffffffffff811115611675576116746111e2565b5b61168186828701611328565b925050604061169286828701611205565b9150509250925092565b5f819050919050565b5f6116bf6116ba6116b5846114b2565b61169c565b6114b2565b9050919050565b5f6116d0826116a5565b9050919050565b5f6116e1826116c6565b9050919050565b6116f1816116d7565b82525050565b5f60208201905061170a5f8301846116e8565b92915050565b611719816114d1565b82525050565b5f6020820190506117325f830184611710565b92915050565b5f806040838503121561174e5761174d6111de565b5b5f61175b85828601611205565b925050602061176c85828601611205565b9150509250929050565b61177f816111e6565b82525050565b5f82825260208201905092915050565b5f61179f82611438565b6117a98185611785565b93506117b9818560208601611452565b6117c281611221565b840191505092915050565b6117d6816114f1565b82525050565b5f60a0820190506117ef5f830188611776565b81810360208301526118018187611795565b90506118106040830186611776565b61181d6060830185611710565b61182a60808301846117cd565b9695505050505050565b5f61183e826116c6565b9050919050565b61184e81611834565b82525050565b5f6020820190506118675f830184611845565b92915050565b611876816114d1565b8114611880575f80fd5b50565b5f813590506118918161186d565b92915050565b5f602082840312156118ac576118ab6111de565b5b5f6118b984828501611883565b91505092915050565b7f5265636f726420696e646578206f7574206f6620626f756e64730000000000005f82015250565b5f6118f6601a83611785565b9150611901826118c2565b602082019050919050565b5f6020820190508181035f830152611923816118ea565b9050919050565b7f4e487b71000000000000000000000000000000000000000000000000000000005f52603260045260245ffd5b7f5265636f726420646f6573206e6f7420657869737400000000000000000000005f82015250565b5f61198b601583611785565b915061199682611957565b602082019050919050565b5f6020820190508181035f8301526119b88161197f565b9050919050565b7f4e6f7420617574686f72697a65640000000000000000000000000000000000005f82015250565b5f6119f3600e83611785565b91506119fe826119bf565b602082019050919050565b5f6020820190508181035f830152611a20816119e7565b9050919050565b7f4e487b71000000000000000000000000000000000000000000000000000000005f52602260045260245ffd5b5f6002820490506001821680611a6b57607f821691505b602082108103611a7e57611a7d611a27565b5b50919050565b5f819050815f5260205f209050919050565b5f6020601f8301049050919050565b5f82821b905092915050565b5f60088302611ae07fffffffffffffffffffffffffffffffffffffffffffffffffffffffffffffffff82611aa5565b611aea8683611aa5565b95508019841693508086168417925050509392505050565b5f611b1c611b17611b12846111e6565b61169c565b6111e6565b9050919050565b5f819050919050565b611b3583611b02565b611b49611b4182611b23565b848454611ab1565b825550505050565b5f90565b611b5d611b51565b611b68818484611b2c565b505050565b5b81811015611b8b57611b805f82611b55565b600181019050611b6e565b5050565b601f821115611bd057611ba181611a84565b611baa84611a96565b81016020851015611bb9578190505b611bcd611bc585611a96565b830182611b6d565b50505b505050565b5f82821c905092915050565b5f611bf05f1984600802611bd5565b1980831691505092915050565b5f611c088383611be1565b9150826002028217905092915050565b611c2182611438565b67ffffffffffffffff811115611c3a57611c39611231565b5b611c448254611a54565b611c4f828285611b8f565b5f60209050601f831160018114611c80575f8415611c6e578287015190505b611c788582611bfd565b865550611cdf565b601f198416611c8e86611a84565b5f5b82811015611cb557848901518255600182019150602085019450602081019050611c90565b86831015611cd25784890151611cce601f891682611be1565b8355505b6001600288020188555050505b505050505050565b5f606082019050611cfa5f830186611776565b8181036020830152611d0c8185611795565b9050611d1b6040830184611776565b949350505050565b7f4e487b71000000000000000000000000000000000000000000000000000000005f52601160045260245ffd5b5f611d5a826111e6565b91507fffffffffffffffffffffffffffffffffffffffffffffffffffffffffffffffff8203611d8c57611d8b611d23565b5b600182019050919050565b5f602082019050611daa5f830184611776565b92915050565b611db9816114f1565b8114611dc3575f80fd5b50565b5f81519050611dd481611db0565b92915050565b5f60208284031215611def57611dee6111de565b5b5f611dfc84828501611dc6565b91505092915050565b7f436172204e465420646f6573206e6f74206578697374000000000000000000005f82015250565b5f611e39601683611785565b9150611e4482611e05565b602082019050919050565b5f6020820190508181035f830152611e6681611e2d565b9050919050565b5f81905092915050565b7f4d61696e74656e616e6365206576656e7420666f72206361722049443a2000005f82015250565b5f611eab601e83611e6d565b9150611eb682611e77565b601e82019050919050565b5f611ecb82611438565b611ed58185611e6d565b9350611ee5818560208601611452565b80840191505092915050565b5f611efb82611e9f565b9150611f078284611ec1565b915081905092915050565b5f6020820190508181035f830152611f2a8184611795565b905092915050565b7f4f776e61626c653a2063616c6c6572206973206e6f7420746865206f776e65725f82015250565b5f611f66602083611785565b9150611f7182611f32565b602082019050919050565b5f6020820190508181035f830152611f9381611f5a565b9050919050565b7f4f776e61626c653a206e6577206f776e657220697320746865207a65726f20615f8201527f6464726573730000000000000000000000000000000000000000000000000000602082015250565b5f611ff4602683611785565b9150611fff82611f9a565b604082019050919050565b5f6020820190508181035f83015261202181611fe8565b9050919050565b7f4e487b71000000000000000000000000000000000000000000000000000000005f52601260045260245ffd5b5f61205f826111e6565b915061206a836111e6565b92508261207a57612079612028565b5b828204905092915050565b5f61208f826111e6565b915061209a836111e6565b92508282039050818111156120b2576120b1611d23565b5b92915050565b5f6120c2826111e6565b91506120cd836111e6565b9250826120dd576120dc612028565b5b828206905092915050565b5f6120f2826111e6565b91506120fd836111e6565b925082820190508082111561211557612114611d23565b5b9291505056fea2646970667358221220b788dde21a4029d08482cc35afbc8d9c643569ee1db428acd023c3bf9e58043e64736f6c63430008150033",
  "immutableReferences": {},
  "source": "// SPDX-License-Identifier: MIT\r\npragma solidity ^0.8.0;\r\n\r\nimport \"@openzeppelin/contracts/utils/Strings.sol\"; // Import the Strings library\r\n\r\nimport \"@openzeppelin/contracts/access/Ownable.sol\";\r\n\r\ninterface ICarNFT {\r\n    function exists(uint256 tokenId) external view returns (bool);\r\n}\r\n\r\ninterface IEAS {\r\n    function attest(string calldata data) external;\r\n}\r\n\r\ncontract MaintenanceRecord is Ownable {\r\n    using Strings for uint256; // Use the Strings library to convert uint256 to string\r\n\r\n    struct Record {\r\n        uint256 date;\r\n        string description;\r\n        uint256 cost;\r\n        address recordedBy;\r\n        bool exists;\r\n    }\r\n\r\n    mapping(uint256 => Record[]) public carRecords; // Mapping from Car NFT ID to an array of maintenance records\r\n\r\n    ICarNFT public carNFT;\r\n    IEAS public eas;\r\n\r\n    constructor(address _carNFT, address _eas) {\r\n        carNFT = ICarNFT(_carNFT);\r\n        eas = IEAS(_eas);\r\n    }\r\n\r\n    event MaintenanceRecorded(uint256 indexed carId, uint256 date, string description, uint256 cost, address indexed recordedBy);\r\n    event MaintenanceUpdated(uint256 indexed carId, uint256 recordIndex, string newDescription, uint256 newCost);\r\n    event MaintenanceDeleted(uint256 indexed carId, uint256 recordIndex);\r\n\r\n    // Record a maintenance event\r\n    function recordMaintenance(uint256 carId, string memory description, uint256 cost) public {\r\n        require(carNFT.exists(carId), \"Car NFT does not exist\");\r\n        \r\n        uint256 date = block.timestamp;\r\n        address recordedBy = msg.sender;\r\n        \r\n        carRecords[carId].push(Record(date, description, cost, recordedBy, true));\r\n\r\n        // Make an attestation about the maintenance event using EAS\r\n        string memory data = string(abi.encodePacked(\"Maintenance event for car ID: \", carId.toString())); // Use the toString() function\r\n        eas.attest(data);\r\n\r\n        emit MaintenanceRecorded(carId, date, description, cost, recordedBy);\r\n    }\r\n\r\n    // Update a maintenance record\r\n    function updateMaintenance(uint256 carId, uint256 recordIndex, string memory newDescription, uint256 newCost) public {\r\n        require(recordIndex < carRecords[carId].length, \"Record index out of bounds\");\r\n        require(carRecords[carId][recordIndex].exists, \"Record does not exist\");\r\n        require(carRecords[carId][recordIndex].recordedBy == msg.sender || owner() == msg.sender, \"Not authorized\");\r\n\r\n        carRecords[carId][recordIndex].description = newDescription;\r\n        carRecords[carId][recordIndex].cost = newCost;\r\n\r\n        emit MaintenanceUpdated(carId, recordIndex, newDescription, newCost);\r\n    }\r\n\r\n    // Delete a maintenance record\r\n    function deleteMaintenance(uint256 carId, uint256 recordIndex) public {\r\n        require(recordIndex < carRecords[carId].length, \"Record index out of bounds\");\r\n        require(carRecords[carId][recordIndex].exists, \"Record does not exist\");\r\n        require(carRecords[carId][recordIndex].recordedBy == msg.sender || owner() == msg.sender, \"Not authorized\");\r\n\r\n        carRecords[carId][recordIndex].exists = false;\r\n\r\n        emit MaintenanceDeleted(carId, recordIndex);\r\n    }\r\n\r\n    // Get all existing maintenance records for a specific car\r\n    function getMaintenanceRecords(uint256 carId) public view returns (Record[] memory records) {\r\n        uint256 count = 0;\r\n        for (uint256 i = 0; i < carRecords[carId].length; i++) {\r\n            if (carRecords[carId][i].exists) {\r\n                count++;\r\n            }\r\n        }\r\n\r\n        records = new Record[](count);\r\n        uint256 index = 0;\r\n        for (uint256 i = 0; i < carRecords[carId].length; i++) {\r\n            if (carRecords[carId][i].exists) {\r\n                records[index] = carRecords[carId][i];\r\n                index++;\r\n            }\r\n        }\r\n    }\r\n}\r\n",
  "sourcePath": "C:\\Users\\fredt\\ethglobal_project\\server\\contracts\\MaintenanceRecord.sol",
  "compiler": {
    "name": "solc",
    "version": "0.8.21+commit.d9974bed.Emscripten.clang"
  },
  "schemaVersion": "3.4.15",
  "updatedAt": "2023-08-08T04:16:37.444Z",
  "devdoc": {
    "kind": "dev",
    "methods": {
      "owner()": {
        "details": "Returns the address of the current owner."
      },
      "renounceOwnership()": {
        "details": "Leaves the contract without owner. It will not be possible to call `onlyOwner` functions anymore. Can only be called by the current owner. NOTE: Renouncing ownership will leave the contract without an owner, thereby removing any functionality that is only available to the owner."
      },
      "transferOwnership(address)": {
        "details": "Transfers ownership of the contract to a new account (`newOwner`). Can only be called by the current owner."
      }
    },
    "version": 1
  },
  "userdoc": {
    "kind": "user",
    "methods": {},
    "version": 1
  }
}